:020000040800F2
:100000000000012089100008B10D0008B70D00089C
:10001000BD0D0008C30D0008C90D00080000000058
:10002000000000000000000000000000CF0D0008EC
:10003000DD0D000800000000EB0D0008F90D0008C0
:10004000D9100008D9100008D9100008D9100008EC
:10005000D9100008D9100008D9100008D9100008DC
:10006000D9100008D9100008D9100008D9100008CC
:10007000D9100008D9100008D9100008D9100008BC
:10008000D9100008D9100008D9100008000000009D
:10009000000000000000000000000000D91000086F
:1000A000D9100008D9100008D9100008D91000088C
:1000B000D9100008D9100008D9100008D91000087C
:1000C000D9100008D9100008D9100008D91000086C
:1000D000D9100008D9100008D9100008000000004D
:1000E000D9100008D9100008D9100008000000003D
:1000F000000000000000000000000000D91000080F
:1001000000000000D9100008D9100008D91000081C
:1001100000000000000000000000000000000000DF
:10012000D9100008D9100008D9100008D91000080B
:10013000D9100008000000000000000000000000CE
:10014000000000000000000000000000D9100008BE
:10015000D9100008D9100008D9100008D9100008DB
:10016000D9100008D91000080000000000000000AD
:10017000000000000000000000000000000000007F
:1001800000000000D910000800000000000000007E
:04019000D91000087A
:1001940010B5054C237833B9044B13B10448AFF3BD
:1001A40000800123237010BD18000020000000000F
:1001B4000C31000808B5034B1BB103490348AFF3E6
:1001C400008008BD000000001C0000200C31000865
:1001D40053B94AB9002908BF00281CBF4FF0FF31AA
:1001E4004FF0FF3000F070B9ADF1080C6DE904CEAA
:1001F40000F006F8DDF804E0DDE9022304B07047FE
:100204002DE9F047089E0D4604460F46002B4AD1BF
:100214008A42944665D9B2FA82F343B102FA03FCE6
:10022400C3F120029F4020FA02F217439C404FEA98
:100234001C4E1FFA8CF5B7FBFEF1220C0EFB117756
:1002440042EA074201FB05F090420AD91CEB020284
:1002540001F1FF3780F01C81904240F2198102398C
:100264006244121AA4B2B2FBFEF00EFB102244EA5E
:10027400024400FB05F5A5420AD91CEB040400F175
:10028400FF3280F00781A54240F2048164440238C1
:1002940040EA0140641B00211EB1DC400023C6E992
:1002A4000043BDE8F0878B4208D9002E00F0ED80B2
:1002B4000021C6E900050846BDE8F087B3FA83F1DA
:1002C400002949D1AB4202D3824200F2F880841A59
:1002D40065EB030201201746002EE2D0C6E9004771
:1002E400DFE702B9FFDEB2FA82F3002B40F0908020
:1002F4008A1A4FEA1C471FFA8CFE0121B2FBF7F55C
:1003040007FB1520220C42EA00420EFB05F0904246
:1003140008D91CEB020205F1FF3802D2904200F228
:10032400CB804546121AA4B2B2FBF7F007FB1022A9
:1003340044EA02440EFB00FEA64508D91CEB040463
:1003440000F1FF3202D2A64500F2BB801046A4EBB6
:100354000E0440EA05409FE7C1F120078B4022FAD2
:1003640007FC4CEA030C05FA01F420FA07F3FD40FC
:100374004FEA1C492343B5FBF9F81FFA8CFE09FB2D
:1003840018551C0C44EA054408FB0EF5A54202FA74
:1003940001F200FA01F00BD91CEB040408F1FF3A56
:1003A40080F08880A54240F28580A8F10208644468
:1003B400641B9DB2B4FBF9F309FB134445EA0444FE
:1003C40003FB0EFEA64508D91CEB040403F1FF351C
:1003D4006CD2A6456AD9023B644443EA0843A3FBB2
:1003E4000295A4EB0E04AC42C846AE4656D353D095
:1003F40056B1B0EB080264EB0E0404FA07F7CA40E6
:10040400CC401743C6E9007418460021BDE8F087C4
:10041400C3F1200102FA03FC20FA01F225FA01F1EA
:100424009D402A434FEA1C471FFA8CFEB1FBF7F0AC
:1004340007FB1015110C41EA054100FB0EF58D4236
:1004440004FA03F408D91CEB010100F1FF382FD2A0
:100454008D422DD902386144491B92B2B1FBF7F5A4
:1004640007FB151142EA014205FB0EF1914208D93E
:100474001CEB020205F1FF3816D2914214D9023D59
:100484006244521A45EA004138E73146304608E7EB
:100494003946E6E61046FBE64845A9D2B9EB020820
:1004A40065EB0C0E013BA3E74546EAE72B4694E7D0
:1004B4004046D1E7D0467BE7023D624432E7084636
:1004C4000AE76444023842E7704700BF80B582B04F
:1004D40000AF0023FB710123BB7100237B71C82291
:1004E4000021324802F0E4FD4FF0FF3301222F498E
:1004F4002F4802F016FA0346BB71BB79002B02D0D9
:100504000023FB714CE0294B1B787B717B799AB2F9
:100514004FF0FF332749264802F003FA0346BB7124
:10052400BB79002B02D00023FB7139E01F4B5B78B1
:10053400103B062B34D801A252F823F05D050008C5
:100544006905000875050008A5050008810500086F
:100554008D05000899050008144800F02DF80123C2
:10056400FB711DE0114800F051F80123FB7117E005
:100574000E4800F079F80123FB7111E00B4800F0FC
:1005840017FA0123FB710BE0084800F0A3F80123DC
:10059400FB7105E0054800F0D9F80123FB7100BFA9
:1005A400FB7918460837BD4680BD00BF34000020E3
:1005B4000C0100203500002080B584B000AF7860C5
:1005C4000023FB810023BB607B681B789BB2013353
:1005D400FB81FB89043B7A6813441B68BB60FB897D
:1005E400043BBA681946786800F012F90346012BF7
:1005F40004D10421044800F0ABFA01E000F096FABB
:1006040000BF1037BD4680BD0000002080B584B017
:1006140000AF78600023FB810023BB607B681B78FC
:100624009BB20133FB81FB89043B7A6813441B684A
:10063400BB60FB89043BBA681946786800F0E8F8A7
:100644000346012B07D1062000F056FA062105487F
:1006540000F07EFA01E000F069FA00BF1037BD46F1
:1006640080BD00BF0400002080B586B000AF786074
:100674000023FB810023FB8200233B617B681B7802
:100684009BB20133FB82FB8A043B7A6813441B68E8
:100694003B61FB8A043B3A691946786800F0B8F874
:1006A4000346012B0DD10A4B1B689BB2C3F30B030A
:1006B4009BB2FB8107F10E030221184600F048FAB1
:1006C40001E000F033FA00BF1837BD4680BD00BF1B
:1006D400002004E080B586B000AF78600223FB738D
:1006E4000023FB8200233B617B681B789BB20133B0
:1006F400FB82FB8A043B7A6813441B683B61FB8AD8
:10070400043B3A691946786800F082F80346012BE5
:1007140016D10421022000F0B7F80346FB73FB7BDB
:10072400032B06D107F10F030121184600F010FA3C
:1007340008E007F10F030121184600F009FA01E06F
:1007440000F0F4F900BF1837BD4680BD80B586B00F
:1007540000AF78600023FB720023BB720023FB828E
:1007640000233B610023FB607B681B789BB2013351
:10077400FB82FB8A043B7A6813441B68FB607B683A
:1007840002331B68204A1288920113441F4A1360E3
:100794001D4B1B8801339AB21B4B1A807B680633AE
:1007A4001B783B61194B1B68184600F0D7F80346C9
:1007B400FB72FB7A012B1BD17B680733134A116848
:1007C4003A6992B2184600F043F90346BB72BB7A09
:1007D400012B06D107F10A030121184600F0B8F9EC
:1007E4000EE007F10A030121184600F0B1F907E011
:1007F4000023FB7207F10B030121184600F0A8F94E
:1008040000BF1837BD4680BDFE0000200001002057
:1008140080B588B000AFF860B9607A600023FB77D8
:100824000023BB6100233B610023FB750FE0FB7DCC
:10083400FA6813441B783B6107F11003012219463F
:10084400104800F0BCFDB861FB7D0133FB75FB7DF6
:10085400BA689A42EBD80B4B1B689A68094B1B6821
:1008640042F001029A607A68BB699A4202D101237C
:10087400FB7701E00023FB77FB7F18462037BD465A
:1008840080BD00BF0401002080B58AB000AF0346DC
:100894000A46FB711346BB710023FB60012387F8F2
:1008A4002630002387F82730002387F82530BB79CA
:1008B400062B03D9002387F8273049E0012387F862
:1008C4002730BB79052B02D9FB79FF2B3DD1FB796E
:1008D400FF2B02D101233B6112E0FB79C3F1060334
:1008E40087F82530BA7997F825309A4202D997F8D3
:1008F4002530BB7100233B61FB79BB61BB79FB6194
:1009040001237B6102233B6200F0D8FD034687F894
:10091400263007F10C0207F110031146184600F0C7
:100924003FFF034687F82630FB68B3F1FF3F03D14E
:10093400032387F8273002E0022387F8273000F0EA
:10094400DFFD034687F8263002E0022387F82730CC
:1009540097F8273018462837BD4680BD80B485B047
:1009640000AF78600023FB737B68B3F1006F06D39C
:100974007B680D4A934202D80123FB730CE07B6829
:10098400B3F1005F06D37B68084A934202D801237F
:10099400FB7301E00023FB73FB7B18461437BD4651
:1009A4005DF8047B704700BF0000040800000120CC
:1009B40080B588B000AF78600023FB830023BB615F
:1009C4007B681B789BB20133FB83FB8B043B7A6807
:1009D40013441B68BB61FB8B043BBA6919467868F6
:1009E400FFF716FF0346012B26D1164B1B68B3F104
:1009F400FF3F19D0144B01221A700121124800F054
:100A0400A7F8104B1B687B61104B1B683B613B696B
:100A1400FB6001F0DDFD7B69BB60BB6883F3088884
:100A240000BFFB68984709E0074B00221A700121B8
:100A3400054800F08DF801E000F078F800BF203799
:100A4400BD4680BD00800008FC0000200480000832
:100A5400B0B586B000AFF860B9601346FB800123DF
:100A6400FB750023BB7500F029FD0346FB75FB7D78
:100A7400002B02D00023BB7523E00023BB821CE0C3
:100A8400BA8ABB68D118BB8AFA6813441B78DBB2F4
:100A940000221C46154622462B46002000F0BAFCD4
:100AA4000346FB75FB7D002B02D00023BB7508E0D9
:100AB4000123BB75BB8A0133BB82BA8AFB889A4285
:100AC400DED3BB7D012B0FD1FB7D002B0CD100F0BD
:100AD40017FD0346FB75FB7D002B02D00023BB757D
:100AE40004E00123BB7501E00023BB75BB7D184600
:100AF4001837BD46B0BD000080B584B000AF0346D2
:100B0400FB710023BB81CD233B73FB797B7307F11E
:100B14000C014FF0FF330222034801F077FE00BFBF
:100B24001037BD4680BD00BF5401002080B582B09F
:100B340000AFAB23FB71F91D4FF0FF3301220348D3
:100B440001F064FE00BF0837BD4680BD540100209B
:100B540080B582B000AF786039603B689AB24FF0DC
:100B6400FF337968034801F051FE00BF0837BD46E2
:100B740080BD00BF5401002080B500AF064B074A7A
:100B84001A60054800F0FFFB0346002B01D000F07B
:100B9400DFF800BF80BD00BF040100200030024028
:100BA40080B485B000AF78607B681B680B4A9342C1
:100BB4000DD10023FB600A4B1B6B094A43F480539D
:100BC4001363074B1B6B03F48053FB60FB6800BF8C
:100BD4001437BD465DF8047B704700BF0030024007
:100BE4000038024080B588B000AF07F10C03002242
:100BF4001A605A609A60DA601A610023BB60184B6D
:100C04001B6B174A43F080031363154B1B6B03F0F4
:100C14008003BB60BB6800237B60114B1B6B104AD5
:100C240043F0010313630E4B1B6B03F001037B6062
:100C34007B68002221210B4801F058F82123FB6036
:100C440001233B6100237B610023BB6107F10C039B
:100C54001946044800F0C6FE00BF2037BD4680BDDB
:100C6400003802400000024080B500AF00F034FAC2
:100C740000F00EF8FFF7B6FF00F0D4F800F0FCF82F
:100C8400FFF77AFF00F022F9FFF720FCFCE70000F1
:100C940080B594B000AF07F120033022002118463C
:100CA40002F006FA07F10C0300221A605A609A60F7
:100CB400DA601A610023BB60234B1B6C224A43F0A9
:100CC40080531364204B1B6C03F08053BB60BB68E0
:100CD40000237B601D4B1B6823F440431B4A43F4F1
:100CE40000431360194B1B6803F440437B607B682B
:100CF40002233B620123FB6210233B630023BB639B
:100D040007F12003184601F00BF80346002B01D02D
:100D140000F01EF80F23FB6000233B6100237B617E
:100D24000023BB610023FB6107F10C03002118467B
:100D340001F06EFA0346002B01D000F009F800BF61
:100D44005037BD4680BD00BF0038024000700040EF
:100D540080B400AF72B600BFFEE7000080B483B079
:100D640000AF00237B60104B5B6C0F4A43F480435D
:100D740053640D4B5B6C03F480437B607B680023FE
:100D84003B60094B1B6C084A43F080531364064BC9
:100D94001B6C03F080533B603B6800BF0C37BD46BF
:100DA4005DF8047B704700BF0038024080B400AF98
:100DB400FEE780B400AFFEE780B400AFFEE780B486
:100DC40000AFFEE780B400AFFEE780B400AF00BF21
:100DD400BD465DF8047B704780B400AF00BFBD46DC
:100DE4005DF8047B704780B400AF00BFBD465DF87A
:100DF400047B704780B500AF00F0C0F900BF80BD30
:100E040080B400AF064BD3F88830054A43F470032E
:100E1400C2F8883000BFBD465DF8047B704700BF50
:100E240000ED00E080B500AF114B124A1A60104B80
:100E34004FF4E1325A600E4B00229A600C4B0022B0
:100E4400DA600B4B00221A61094B0C225A61084BE1
:100E540000229A61064B0022DA61054801F086FC03
:100E64000346002B01D0FFF773FF00BF80BD00BF16
:100E74000C0100200010014080B500AF114B124A54
:100E84001A60104B4FF4E1325A600E4B00229A6004
:100E94000C4B0022DA600B4B00221A61094B0C2226
:100EA4005A61084B00229A61064B0022DA61054818
:100EB40001F05CFC0346002B01D0FFF749FF00BFA3
:100EC40080BD00BF540100200044004080B500AF45
:100ED400114B124A1A60104B4FF4E1325A600E4B18
:100EE40000229A600C4B0022DA600B4B00221A613C
:100EF400094B0C225A61084B00229A61064B0022CE
:100F0400DA61054801F032FC0346002B01D0FFF7FB
:100F14001FFF00BF80BD00BF9C01002000140140E2
:100F240080B58EB000AF786007F1240300221A6008
:100F34005A609A60DA601A617B681B684C4A934273
:100F44002DD100233B624B4B5B6C4A4A43F01003A8
:100F54005364484B5B6C03F010033B623B6A002311
:100F6400FB61444B1B6B434A43F001031363414B46
:100F74001B6B03F00103FB61FB694FF4C0637B62ED
:100F84000223BB620023FB6203233B6307237B63CF
:100F940007F124031946384800F024FD63E07B6818
:100FA4001B68364A93422CD10023BB61314B1B6C26
:100FB400304A43F4003313642E4B1B6C03F40033A8
:100FC400BB61BB6900237B612A4B1B6B294A43F03D
:100FD40001031363274B1B6B03F001037B617B69E4
:100FE4000C237B620223BB620023FB6203233B636B
:100FF40007237B6307F1240319461F4800F0F2FC22
:1010040031E07B681B681E4A93422CD100233B616C
:10101400184B5B6C174A43F020035364154B5B6C0D
:1010240003F020033B613B690023FB60114B1B6B06
:10103400104A43F0010313630E4B1B6B03F00103CF
:10104400FB60FB684FF4C0537B620223BB62002346
:10105400FB6203233B6308237B6307F124031946E4
:10106400054800F0BFFC00BF3837BD4680BD00BF57
:1010740000100140003802400000024000440040DB
:1010840000140140DFF834D0FFF7BAFE0C480D49D4
:101094000D4A002302E0D458C4500433C4188C42CF
:1010A400F9D30A4A0A4C002301E013600432A24235
:1010B400FBD302F005F8FFF7D7FD704700000120CD
:1010C40000000020180000204C3100081800002007
:1010D40008020020FEE7000080B500AF0E4B1B683D
:1010E4000D4A43F4007313600B4B1B680A4A43F424
:1010F40080631360084B1B68074A43F480731360D2
:10110400032000F00DF90F2000F008F8FFF726FE89
:101114000023184680BD00BF003C024080B582B069
:1011240000AF7860124B1A68124B1B7819464FF4C3
:101134007A73B3FBF1F3B2FBF3F3184600F017F93B
:101144000346002B01D001230EE07B680F2B0AD845
:10115400002279684FF0FF3000F0EDF8064A7B6812
:101164001360002300E0012318460837BD4680BD04
:101174000C000020140000201000002080B400AFF8
:10118400064B1B781A46064B1B681344044A13602B
:1011940000BFBD465DF8047B704700BF140000200B
:1011A400E401002080B400AF034B1B681846BD4621
:1011B4005DF8047B704700BFE401002080B485B073
:1011C40000AF78607B6803F00703FB600C4BDB68BF
:1011D400BB60BA684FF6FF031340BB60FB681A029A
:1011E400BB68134343F0BF6343F40033BB60044A5A
:1011F400BB68D36000BF1437BD465DF8047B7047FD
:1012040000ED00E080B400AF044BDB681B0A03F080
:1012140007031846BD465DF8047B704700ED00E007
:1012240080B483B000AF03463960FB7197F907308F
:10123400002B0ADB3B68DAB20C4997F9073012013C
:10124400D2B20B4483F800230AE03B68DAB20849BF
:10125400FB7903F00F03043B1201D2B20B441A765C
:1012640000BF0C37BD465DF8047B704700E100E029
:1012740000ED00E080B489B000AFF860B9607A6036
:10128400FB6803F00703FB61FB69C3F10703042B4D
:1012940028BF0423BB61FB690433062B02D9FB6915
:1012A400033B00E000237B614FF0FF32BB6902FA8D
:1012B40003F3DA43BB681A407B699A404FF0FF316D
:1012C4007B6901FA03F3D9437B680B401343184647
:1012D4002437BD465DF8047B7047000080B582B0BA
:1012E40000AF78607B68013BB3F1807F01D30123B9
:1012F4000FE00A4A7B68013B53600F214FF0FF3037
:10130400FFF78EFF054B00229A60044B07221A60F8
:10131400002318460837BD4680BD00BF10E000E03A
:1013240080B582B000AF78607868FFF747FF00BFF0
:101334000837BD4680BD80B586B000AF0346B960AE
:101344007A60FB7300237B61FFF75CFF78617A6846
:10135400B9687869FFF78EFF024697F90F30114696
:101364001846FFF75DFF00BF1837BD4680BD80B546
:1013740082B000AF78607868FFF7B0FF0346184684
:101384000837BD4680BD80B582B000AF78607B6809
:10139400002B01D101230EE07B685B79DBB2002BCB
:1013A40005D17B6800221A717868FFF7F9FB7B6826
:1013B40001225A71002318460837BD4680BD80B407
:1013C40087B000AFF860B9607A6000233B61FB68C6
:1013D40002225A7100237B610AE07B699B00BA6890
:1013E4001A44FB681B6812681A607B6901337B61CD
:1013F4007A697B689A42F0D3FB681B681B683B617F
:10140400FB6801225A713B6918461C37BD465DF8DA
:10141400047B704780B586B000AFF860B960C7E957
:1014240000230123FB75234B1B7E012B01D10223D7
:101434003BE0204B01221A764CF2503000F070F859
:101444000346FB75FB7D002B2BD1FB68002B05D1DC
:101454003B781946B86800F01BF916E0FB68012BCD
:1014640005D13B881946B86800F0EEF80DE0FB683A
:10147400022B05D13B681946B86800F0C3F804E0B4
:10148400D7E90023B86800F08BF84CF2503000F034
:1014940047F80346FB75084B1B69074A23F0010311
:1014A4001361044B00221A76FB7D18461837BD469B
:1014B40080BD00BFE8010020003C024080B483B03E
:1014C40000AF0023FB710B4B1B69002B0BDA094B9C
:1014D400094A5A60074B094A5A60064B1B69002B9C
:1014E40001DA0123FB71FB7918460C37BD465DF820
:1014F400047B7047003C024023016745AB89EFCD74
:1015040080B400AF054B1B69044A43F000431361E8
:1015140000231846BD465DF8047B7047003C02403A
:1015240080B584B000AF78600023FB601A4B0022C2
:10153400DA61FFF737FEF86010E07B68B3F1FF3F34
:101544000CD07B68002B07D0FFF72CFE0246FB680B
:10155400D31A7A689A4201D2032319E00F4BDB684D
:1015640003F48033002BE8D10C4BDB6803F0010358
:10157400002B02D0094B0122DA60084BDB6803F42C
:10158400F973002B03D000F0A5F8012300E0002339
:1015940018461037BD4680BDE8010020003C0240DB
:1015A40080B485B000AFF860C7E90023144B1B6911
:1015B400134A23F440731361114B1B69104A43F41B
:1015C400407313610E4B1B690D4A43F00103136111
:1015D400FB683A681A60BFF36F8F00BFD7E9000158
:1015E4004FF000024FF000030A000023F9680431B1
:1015F40013460B6000BF1437BD465DF8047B70478B
:10160400003C024080B483B000AF786039600D4B79
:101614001B690C4A23F4407313610A4B1B69094A82
:1016240043F400731361074B1B69064A43F001033B
:1016340013617B683A681A6000BF0C37BD465DF8D9
:10164400047B7047003C024080B483B000AF7860F4
:101654000B467B800D4B1B690C4A23F440731361CA
:101664000A4B1B69094A43F480731361074B1B69D6
:10167400064A43F0010313617B687A881A8000BF2D
:101684000C37BD465DF8047B704700BF003C024048
:1016940080B483B000AF78600B46FB700C4B1B69C1
:1016A4000B4A23F440731361094B094A1B69136104
:1016B400074B1B69064A43F0010313617B68FA7800
:1016C4001A7000BF0C37BD465DF8047B704700BF3D
:1016D400003C024080B400AF2F4BDB6803F01003E2
:1016E400002B08D02D4BDB6943F010032B4AD36148
:1016F400294B1022DA60284BDB6803F02003002B0F
:1017040008D0264BDB6943F00803244AD361224BFB
:101714002022DA60204BDB6803F04003002B08D062
:101724001E4BDB6943F004031C4AD3611A4B40226D
:10173400DA60194BDB6803F08003002B08D0174BE9
:10174400DB6943F00203154AD361134B8022DA604C
:10175400114BDB6803F48073002B09D00F4BDB695A
:1017640043F001030D4AD3610B4B4FF48072DA60EE
:10177400094BDB6803F00203002B08D0074BDB693D
:1017840043F02003054AD361034B0222DA6000BF11
:10179400BD465DF8047B7047003C0240E801002030
:1017A40080B584B000AF786039600123FB730023F7
:1017B400BB60314B1B7E012B01D1022358E02E4B21
:1017C40001221A764CF25030FFF7AAFE0346FB734F
:1017D400FB7B002B48D13B684FF0FF321A607B68DB
:1017E4001B68012B15D17B681B69DAB27B685B68C7
:1017F4001946104600F044F84CF25030FFF790FEC2
:101804000346FB731D4B1B691C4A23F0040313613D
:1018140028E07B689B68BB601CE07B681B69DBB2CB
:101824001946B86800F050F84CF25030FFF778FED3
:101834000346FB73114B1B69104A23F0FA0313612F
:10184400FB7B002B03D03B68BA681A600AE0BB68D4
:101854000133BB607B68DA687B689B681344BA68B1
:101864009A42DAD300F078F8034B00221A76FB7B15
:1018740018461037BD4680BDE8010020003C0240F8
:1018840080B483B000AF03463960FB710D4B1B6914
:101894000C4A23F4407313610A4B1B69094A43F051
:1018A40004031361074B1A69FB791B021343054AAE
:1018B40043F48033136100BF0C37BD465DF8047BED
:1018C400704700BF003C024080B485B000AF786030
:1018D4000B46FB700023FB60FB78002B02D1002336
:1018E400FB6010E0FB78012B03D14FF48073FB60A5
:1018F40009E0FB78022B03D14FF40073FB6002E094
:101904004FF44073FB60134B1B69124A23F440737A
:101914001361104B1A690F49FB6813430B610D4B9C
:101924001B690C4A23F0F80313610A4B1A697B689C
:10193400DB001343074A43F002031361054B1B69A1
:10194400044A43F48033136100BF1437BD465DF885
:10195400047B7047003C024080B400AF204B1B68FE
:1019640003F40073002B17D01D4B1B681C4A23F48F
:10197400007313601A4B1B68194A43F40063136025
:10198400174B1B68164A23F400631360144B1B683F
:10199400134A43F400731360114B1B6803F4806310
:1019A400002B17D00E4B1B680D4A23F48063136081
:1019B4000B4B1B680A4A43F480531360084B1B68A3
:1019C400074A23F480531360054B1B68044A43F40D
:1019D4008063136000BFBD465DF8047B704700BFA1
:1019E400003C024080B489B000AF786039600023C5
:1019F4007B6100233B610023BB610023FB6159E150
:101A04000122FB6902FA03F37B613B681B687A6974
:101A140013403B613A697B699A4240F048813B68D4
:101A24005B6803F00303012B05D03B685B6803F09C
:101A34000303022B30D17B689B68BB61FB695B00AD
:101A4400032202FA03F3DB43BA691340BB613B6828
:101A5400DA68FB695B0002FA03F3BA691343BB61FA
:101A64007B68BA699A607B685B68BB610122FB6929
:101A740002FA03F3DB43BA691340BB613B685B685A
:101A84001B0903F00102FB6902FA03F3BA69134369
:101A9400BB617B68BA695A603B685B6803F0030307
:101AA400032B17D07B68DB68BB61FB695B000322F7
:101AB40002FA03F3DB43BA691340BB613B689A68DB
:101AC400FB695B0002FA03F3BA691343BB617B68E9
:101AD400BA69DA603B685B6803F00303022B23D125
:101AE400FB69DA087B68083253F82230BB61FB6972
:101AF40003F007039B000F2202FA03F3DB43BA69E6
:101B04001340BB613B681A69FB6903F007039B0040
:101B140002FA03F3BA691343BB61FB69DA087B6811
:101B24000832B96943F822107B681B68BB61FB6902
:101B34005B00032202FA03F3DB43BA691340BB617F
:101B44003B685B6803F00302FB695B0002FA03F382
:101B5400BA691343BB617B68BA691A603B685B6806
:101B640003F44033002B00F0A2800023FB60574BAA
:101B74005B6C564A43F480435364544B5B6C03F4EC
:101B84008043FB60FB68524AFB699B08023352F8AE
:101B94002330BB61FB6903F003039B000F2202FAAD
:101BA40003F3DB43BA691340BB617B68494A934240
:101BB40019D07B68484A934213D07B68474A9342C2
:101BC4000DD07B68464A934207D07B68454A9342CE
:101BD40001D1042308E0072306E0032304E00223E1
:101BE40002E0012300E00023FA6902F003029200FC
:101BF4009340BA691343BB613549FB699B080233BF
:101C0400BA6941F82320384B9B68BB613B69DB43CD
:101C1400BA691340BB613B685B6803F48013002B13
:101C240003D0BA693B691343BB612F4ABB69936014
:101C34002D4BDB68BB613B69DB43BA691340BB6175
:101C44003B685B6803F40013002B03D0BA693B695B
:101C54001343BB61244ABB69D360234B5B68BB61FC
:101C64003B69DB43BA691340BB613B685B6803F4BF
:101C74000033002B03D0BA693B691343BB611A4A92
:101C8400BB695360184B1B68BB613B69DB43BA6992
:101C94001340BB613B685B6803F48033002B03D0C3
:101CA400BA693B691343BB610F4ABB691360FB69A3
:101CB4000133FB61FB690F2B7FF6A2AE00BF00BFAF
:101CC4002437BD465DF8047B704700BF00380240EE
:101CD40000380140000002400004024000080240B5
:101CE400000C024000100240003C014080B483B06C
:101CF40000AF78600B467B8013467B707B78002BAB
:101D040003D07A887B689A6103E07B881A047B6835
:101D14009A6100BF0C37BD465DF8047B7047000034
:101D240080B586B000AF78607B68002B01D10123B9
:101D340067E27B681B6803F00103002B75D0884BB6
:101D44009B6803F00C03042B0CD0854B9B6803F0B9
:101D54000C03082B12D1824B5B6803F48003B3F5A8
:101D6400800F0BD17E4B1B6803F40033002B5BD038
:101D74007B685B68002B57D1012342E27B685B6878
:101D8400B3F5803F06D1764B1B68754A43F4803324
:101D940013601DE07B685B68B3F5A02F0CD1704B1A
:101DA4001B686F4A43F4802313606D4B1B686C4AB5
:101DB40043F4803313600BE0694B1B68684A23F4D7
:101DC40080331360664B1B68654A23F480231360D9
:101DD4007B685B68002B13D0FFF7E4F9386108E0F7
:101DE400FFF7E0F902463B69D31A642B01D90323B8
:101DF40007E25B4B1B6803F40033002BF0D014E0C4
:101E0400FFF7D0F9386108E0FFF7CCF902463B69E7
:101E1400D31A642B01D90323F3E1514B1B6803F458
:101E24000033002BF0D100E000BF7B681B6803F097
:101E34000203002B63D04A4B9B6803F00C03002B76
:101E44000BD0474B9B6803F00C03082B1CD1444B6D
:101E54005B6803F48003002B16D1414B1B6803F02D
:101E64000203002B05D07B68DB68012B01D0012322
:101E7400C7E13B4B1B6823F0F8027B681B69DB005E
:101E8400374913430B603AE07B68DB68002B20D0B2
:101E9400344B01221A60FFF785F9386108E0FFF737
:101EA40081F902463B69D31A022B01D90323A8E125
:101EB4002B4B1B6803F00203002BF0D0284B1B684C
:101EC40023F0F8027B681B69DB00254913430B6090
:101ED40015E0244B00221A60FFF764F9386108E02A
:101EE400FFF760F902463B69D31A022B01D9032399
:101EF40087E11B4B1B6803F00203002BF0D17B68C6
:101F04001B6803F00803002B36D07B685B69002B49
:101F140016D0154B01221A60FFF744F9386108E026
:101F2400FFF740F902463B69D31A022B01D9032378
:101F340067E10B4B5B6F03F00203002BF0D01BE057
:101F4400094B00221A60FFF72DF938610EE0FFF704
:101F540029F902463B69D31A022B07D9032350E11E
:101F64000038024000004742800E4742884B5B6FB6
:101F740003F00203002BEAD17B681B6803F004031F
:101F8400002B00F097800023FB75814B1B6C03F042
:101F94008053002B0FD10023BB607D4B1B6C7C4A0C
:101FA40043F0805313647A4B1B6C03F08053BB6083
:101FB400BB680123FB75774B1B6803F48073002B0C
:101FC40018D1744B1B68734A43F480731360FFF792
:101FD400E9F8386108E0FFF7E5F802463B69D31AEF
:101FE400022B01D903230CE16A4B1B6803F48073B1
:101FF400002BF0D07B689B68012B06D1644B1B6FD0
:10200400634A43F0010313671CE07B689B68052B5C
:102014000CD15F4B1B6F5E4A43F0040313675C4BA8
:102024001B6F5B4A43F0010313670BE0584B1B6FB4
:10203400574A23F001031367554B1B6F544A23F08F
:10204400040313677B689B68002B15D0FFF7AAF87D
:1020540038610AE0FFF7A6F802463B69D31A41F259
:102064008832934201D90323CBE0494B1B6F03F021
:102074000203002BEED014E0FFF794F838610AE075
:10208400FFF790F802463B69D31A41F28832934233
:1020940001D90323B5E03E4B1B6F03F00203002B71
:1020A400EED1FB7D012B05D1394B1B6C384A23F053
:1020B400805313647B689B69002B00F0A180344B30
:1020C4009B6803F00C03082B5CD07B689B69022B94
:1020D40041D1314B00221A60FFF764F8386108E0FF
:1020E400FFF760F802463B69D31A022B01D9032398
:1020F40087E0274B1B6803F00073002BF0D17B684B
:10210400DA697B681B6A1A437B685B6A9B011A4322
:102114007B689B6A5B08013B1B041A437B68DB6A90
:102124001B061B4913434B601B4B01221A60FFF72C
:1021340039F8386108E0FFF735F802463B69D31AED
:10214400022B01D903235CE0114B1B6803F00073DD
:10215400002BF0D054E0104B00221A60FFF722F855
:10216400386108E0FFF71EF802463B69D31A022BD8
:1021740001D9032345E0064B1B6803F00073002BD1
:10218400F0D13DE07B689B69012B07D1012338E046
:102194000038024000700040600047421B4B5B68FF
:1021A400FB607B689B69012B28D0FB6803F48002E9
:1021B4007B68DB699A4221D1FB6803F03F027B68AC
:1021C4001B6A9A421AD1FA6847F6C07313407A68B8
:1021D400526A9201934211D1FB6803F440327B6846
:1021E4009B6A5B08013B1B049A4207D1FB6803F01E
:1021F40070627B68DB6A1B069A4201D0012300E00F
:10220400002318461837BD4680BD00BF0038024081
:1022140080B584B000AF786039607B68002B01D151
:102224000123CCE0684B1B6803F007033A689A4229
:102234000CD9654B3A68D2B21A70634B1B6803F031
:1022440007033A689A4201D00123B8E07B681B680F
:1022540003F00203002B20D07B681B6803F0040307
:10226400002B05D0594B9B68584A43F4E0539360C4
:102274007B681B6803F00803002B05D0534B9B6855
:10228400524A43F460439360504B9B6823F0F0023E
:102294007B689B684D4913438B607B681B6803F024
:1022A4000103002B44D07B685B68012B07D1474BAB
:1022B4001B6803F40033002B19D101237FE07B68F2
:1022C4005B68022B03D07B685B68032B07D13F4B11
:1022D4001B6803F00073002B09D101236FE03B4B13
:1022E4001B6803F00203002B01D1012367E0374B85
:1022F4009B6823F003027B685B68344913438B605B
:10230400FEF750FFF8600AE0FEF74CFF0246FB6858
:10231400D31A41F28832934201D903234FE02B4B65
:102324009B6803F00C027B685B689B009A42EBD1CC
:10233400254B1B6803F007033A689A420CD2224BE0
:102344003A68D2B21A70204B1B6803F007033A684C
:102354009A4201D0012332E07B681B6803F0040336
:10236400002B08D0194B9B6823F4E0527B68DB6890
:10237400164913438B607B681B6803F00803002B2A
:1023840009D0124B9B6823F460427B681B69DB0015
:102394000E4913438B6000F021F802460B4B9B68F7
:1023A4001B0903F00F030A49CB5C22FA03F3094A21
:1023B4001360094B1B681846FEF7B0FE002318464D
:1023C4001037BD4680BD00BF003C024000380240CB
:1023D400243100080C000020100000202DE9B04F2B
:1023E40090B000AF00237B630023FB6300233B63B7
:1023F4000023BB63594B9B6803F00C03082B0DD0DF
:10240400082B00F2A180002B02D0042B03D09BE008
:10241400534BBB639BE0534BBB6398E04F4B5B68F0
:1024240003F03F037B634D4B5B6803F48003002B95
:1024340028D04A4B5B689B0900223B627A623B6A64
:10244400C3F308000021474B03FB01F2002300FB08
:1024540003F31344434AA0FB0212FA620A46BA6227
:10246400FA6A1344FB627B6B0022BB61FA61D7E911
:102474000623D7E90A01FDF7ABFE02460B461346D5
:10248400FB6353E0354B5B689B0900223B617A6137
:102494003B69C3F3080A4FF0000B52465B464FF00A
:1024A40000004FF00001590141EAD2615001024697
:1024B4000B46B2EB0A0863EB0B094FF000024FF036
:1024C40000034FEA891343EA98634FEA8812B2EB98
:1024D400080463EB09054FF000024FF00003EB0022
:1024E40043EA5473E20014461D4614EB0A033B60AE
:1024F40045EB0B037B604FF000024FF00003D7E97C
:10250400004529468B02214643EA915321468A021B
:10251400104619467B6B0022BB60FA60D7E90223A0
:10252400FDF756FE02460B461346FB630B4B5B68F6
:102534001B0C03F0030301335B003B63FA6B3B6B3F
:10254400B2FBF3F3BB6302E0054BBB6300BFBB6BA1
:1025540018464037BD46BDE8B08F00BF0038024082
:102564000024F40040787D0180B400AF034B1B6865
:102574001846BD465DF8047B704700BF0C00002080
:1025840080B500AFFFF7F0FF0246054B9B689B0A3E
:1025940003F007030349CB5C22FA03F3184680BD1A
:1025A400003802403431000880B500AFFFF7DCFF8B
:1025B4000246054B9B685B0B03F007030349CB5CA6
:1025C40022FA03F3184680BD003802403431000873
:1025D40080B582B000AFFEF7E5FD78605D4B1B6807
:1025E4005C4A43F00103136008E0FEF7DBFD02469A
:1025F4007B68D31A022B01D90323A7E0554B1B6830
:1026040003F00203002BF0D0524B1B68514A43F0F5
:1026140080031360FEF7C6FD78604E4B00229A607B
:102624000AE0FEF7BFFD02467B68D31A41F2883206
:10263400934201D9032389E0464B9B6803F00C03C2
:10264400002BEED1FEF7AEFD7860424B1B68414A89
:1026540023F45023136008E0FEF7A4FD02467B68D0
:10266400D31A642B01D9032370E03A4B1B6803F49B
:102674000033002BF0D1FEF795FD7860354B1B68D5
:10268400344A23F08073136008E0FEF78BFD0246A2
:102694007B68D31A022B01D9032357E02D4B1B6807
:1026A40003F00073002BF0D1FEF77CFD7860294B1A
:1026B4001B68284A23F08063136008E0FEF772FD6C
:1026C40002467B68D31A022B01D903233EE0214B37
:1026D4001B6803F00063002BF0D11E4B1E4A5A60A6
:1026E4001C4B1E4AC3F884201A4BDB68194A23F496
:1026F400F853D360174BDB68164A23F40053D360B6
:10270400144BDB68134A43F41F03D360114BDB689B
:10271400104A43F40013D3600E4B5B6F0D4A23F051
:10272400010353670B4B5B6F0A4A43F08073536793
:102734000B4B0C4A1A600C4B1B681846FEF7EEFC58
:102744000346002B01D0012300E00023184608377C
:10275400BD4680BD00380240103000040030002027
:102764000C0000200024F4001000002080B582B08A
:1027740000AF78607B68002B01D1012342E07B68C5
:1027840093F84130DBB2002B06D17B68002283F83A
:1027940040207868FEF7C4FB7B68242283F841203C
:1027A4007B681B68DA687B681B6822F40052DA6075
:1027B400786800F009FA7B681B681A697B681B68F3
:1027C40022F490421A617B681B685A697B681B6813
:1027D40022F02A025A617B681B68DA687B681B68EE
:1027E40042F40052DA607B6800225A647B6820223B
:1027F40083F841207B68202283F842207B680022F2
:102804005A63002318460837BD4680BD80B58AB098
:1028140002AFF860B9603B601346FB8000237B6124
:10282400FB6893F84130DBB2202B75D1BB68002BD9
:1028340002D0FB88002B01D101236EE0FB6800224B
:102844005A64FB68212283F84120FEF7ABFC7861CF
:10285400FB68FA889A84FB68FA88DA84FB689B68C8
:10286400B3F5805F08D1FB681B69002B04D10023FA
:10287400FB61BB68BB6103E0BB68FB610023BB6118
:102884002EE03B6800937B6900228021F86800F009
:10289400DFF80346002B05D0FB68202283F8412093
:1028A40003233AE0FB69002B0BD1BB691B881A4652
:1028B400FB681B68C2F308025A60BB690233BB6140
:1028C40007E0FB691A78FB681B685A60FB690133EF
:1028D400FB61FB68DB8C9BB2013B9AB2FB68DA8438
:1028E400FB68DB8C9BB2002BCBD13B6800937B69EC
:1028F40000224021F86800F0ABF80346002B05D015
:10290400FB68202283F84120032306E0FB68202291
:1029140083F84120002300E0022318462037BD46F7
:1029240080BD80B58AB002AFF860B9603B601346E1
:10293400FB8000237B61FB6893F84230DBB2202BE1
:1029440040F08180BB68002B02D0FB88002B01D1B2
:10295400012379E0FB6800225A64FB68222283F891
:102964004220FB6800221A63FEF71CFC7861FB68B6
:10297400FA889A85FB68FA88DA85FB689B68B3F560
:10298400805F08D1FB681B69002B04D10023FB6125
:10299400BB68BB6103E0BB68FB610023BB6147E02C
:1029A4003B6800937B6900222021F86800F050F80E
:1029B4000346002B05D0FB68202283F84220032322
:1029C40042E0FB69002B0CD1FB681B685B689BB27F
:1029D400C3F308039AB2BB691A80BB690233BB61B3
:1029E4001FE0FB689B68B3F5805F07D0FB689B68BA
:1029F400002B0AD1FB681B69002B06D1FB681B68FE
:102A04005B68DAB2FB691A7008E0FB681B685B68F4
:102A1400DBB203F07F03DAB2FB691A70FB6901339E
:102A2400FB61FB68DB8D9BB2013B9AB2FB68DA85E4
:102A3400FB68DB8D9BB2002BB2D1FB68202283F8AC
:102A44004220002300E0022318462037BD4680BD03
:102A540080B586B000AFF860B9603B601346FB7187
:102A64003BE03B6AB3F1FF3F37D0FEF79BFB0246E6
:102A74003B68D31A3A6A9A4202D33B6A002B01D1CB
:102A840003233AE0FB681B68DB6803F00403002BB4
:102A940023D0BB68802B20D0BB68402B1DD0FB68A3
:102AA4001B681B6803F00803082B16D100237B6105
:102AB400FB681B681B687B61FB681B685B687B6148
:102AC4007B69F86800F01DF8FB6808225A64FB680B
:102AD400002283F8402001230FE0FB681B681A687A
:102AE400BB681340BA689A420CBF01230023DBB2CF
:102AF4001A46FB799A42B4D0002318461837BD46CB
:102B040080BD80B495B000AF78607B681B680C33DF
:102B14007B637B6B53E8003F3B633B6B23F4907315
:102B2400FB647B681B680C33FA6C3A64FB63F96BD7
:102B34003A6C41E80023BB63BB6B002BE5D17B6897
:102B44001B6814333B623B6A53E8003FFB61FB693B
:102B540023F00103BB647B681B681433BA6CFA620C
:102B6400BB62B96AFA6A41E800237B627B6A002B84
:102B7400E5D17B681B6B012B19D17B681B680C3377
:102B8400FB60FB6853E8003FBB60BB6823F01003A5
:102B94007B647B681B680C337A6CBA617B617969EE
:102BA400BA6941E800233B613B69002BE5D17B68AE
:102BB400202283F842207B6800221A6300BF543726
:102BC400BD465DF8047B70472DE9B04FC0B000AF3F
:102BD400C7F8F400D7F8F4301B681B6923F440509D
:102BE400D7F8F430D968D7F8F4301A6840EA01030A
:102BF4001361D7F8F4309A68D7F8F4301B691A4394
:102C0400D7F8F4305B691A43D7F8F430DB6913431F
:102C1400C7F8F830D7F8F4301B68DB6823F41641A2
:102C240021F00C01D7F8F4301A68D7F8F8300B43C8
:102C3400D360D7F8F4301B685B6923F44070D7F88D
:102C4400F4309969D7F8F4301A6840EA0103536103
:102C5400D7F8F4301A688F4B9A4205D0D7F8F4307D
:102C64001A688D4B9A4204D1FFF79EFCC7F8FC000A
:102C740003E0FFF785FCC7F8FC00D7F8F430DB6904
:102C8400B3F5004F40F00C81D7F8FC300022C7F8B0
:102C9400E830C7F8EC20D7E93A4522462B4691188C
:102CA400B9655B41FB65D7E91623214612EB0108A0
:102CB400294643EB01094FF000024FF000034FEAAD
:102CC400C90343EA58734FEAC8029046994623461B
:102CD40018EB0303C7F8E0302B4649EB0303C7F8AE
:102CE400E430D7F8F4305B680022C7F8D830C7F86E
:102CF400DC20D7E936120B46DB183B65134642EB62
:102D040003037B65D7E91423D7E93801FDF760FA9B
:102D140002460B46614BA3FB02235B091C01D7F857
:102D2400FC300022C7F8D030C7F8D420D7E9348962
:102D340042464B469118B9645B41FB64D7E91223C0
:102D4400414612EB010A494643EB010B4FF00002E6
:102D54004FF000034FEACB0343EA5A734FEACA0227
:102D640092469B4643461AEB0303C7F8C8304B46CA
:102D74004BEB0303C7F8CC30D7F8F4305B68002280
:102D8400C7F8C030C7F8C420D7E930120B46DB18A7
:102D94003B64134642EB03037B64D7E91023D7E972
:102DA4003201FDF715FA02460B4611463B4BA3FBD5
:102DB40001235B09642202FB03F3CB1ADB0003F15A
:102DC4003202364BA3FB02235B095B0003F4F87366
:102DD4001C44D7F8FC300022C7F8B830C7F8BC2030
:102DE400D7E92E8942464B469118B9635B41FB6390
:102DF400D7E90E2341465118396349464B417B6359
:102E04004FF000024FF00003D7E90CAB5946CB005A
:102E1400514643EA51735146CA00104619460346C7
:102E240042469B18C7F8B0304B460A4642EB0303B0
:102E3400C7F8B430D7F8F4305B680022C7F8A8307C
:102E4400C7F8AC20D7E92A120B46DB18BB6213463D
:102E540042EB0303FB62D7E90A23D7E92C01FDF710
:102E6400B7F902460B460D4BA3FB02135B09642121
:102E740001FB03F3D31ADB003233084AA2FB03231A
:102E84005B0903F00702D7F8F4301B6822449A6008
:102E940006E100BF00100140001401401F85EB5102
:102EA400D7F8FC300022C7F8A030C7F8A420D7E92F
:102EB400288942464B46911839625B417B62D7E9C7
:102EC400082341465418494643EB01054FF00002DC
:102ED4004FF00003EB0043EA5473E20014461D462E
:102EE4004346E318C7F898304B4645EB0303C7F84D
:102EF4009C30D7F8F4305B680022C7F89030C7F8EC
:102F040094204FF000024FF00003D7E924452946EE
:102F14008B00214643EA917321468A00D7E92601B2
:102F2400FDF756F902460B46604BA3FB02235B09EF
:102F34001C01D7F8FC300022C7F88830C7F88C2071
:102F4400D7E9228942464B469118B9615B41FB613E
:102F5400D7E9062341465118396149464B417B6103
:102F64004FF000024FF00003D7E904AB5946CB0001
:102F7400514643EA51735146CA0010461946034666
:102F840042469B18C7F880304B460A4642EB03037F
:102F9400C7F88430D7F8F4305B680022BB67FA675F
:102FA4004FF000024FF00003D7E91E8949468B0019
:102FB400414643EA917341468A00D7E92001FDF76F
:102FC40007F902460B461146384BA3FB01235B0964
:102FD400642202FB03F3CB1A1B013233334AA2FBF4
:102FE40003235B0903F0F0031C44D7F8FC300022F0
:102FF4003B677A67D7E91C8942464B469118B9600A
:103004005B41FB60D7E902234146511839604946C8
:103014004B417B604FF000024FF00003D7E900AB57
:103024005946CB00514643EA51735146CA001046F3
:103034001946034642469B18BB664B460A4642EB7A
:103044000303FB66D7F8F4305B6800223B667A66BC
:103054004FF000024FF00003D7E9188949468B006E
:10306400414643EA917341468A00D7E91A01FDF7C4
:10307400AFF802460B460D4BA3FB02135B09642118
:1030840001FB03F3D31A1B013233084AA2FB0323C7
:103094005B0903F00F02D7F8F4301B6822449A60EE
:1030A40000BF07F58077BD46BDE8B08F1F85EB51A3
:1030B40002440346934200D1704703F8011BF9E729
:1030C40070B50D4D0D4C641BA4100026A64209D109
:1030D4000B4D0C4C00F018F8641BA4100026A642FB
:1030E40005D170BD55F8043B98470136EEE755F815
:1030F400043B98470136F2E74431000844310008A4
:103104004431000848310008F8B500BFF8BC08BCD9
:103114009E467047F8B500BFF8BC08BC9E46704791
:103124000000000000000000010203040607080973
:08313400000000000102030489
:08313C00C8D0FF7F0100000074
:04314400B9010008C5
:0431480095010008E5
:10314C006401010010111214151600000024F40083
:08315C0010000000010000005A
:040000050800108956
:00000001FF
