S01700004763634170706C69636174696F6E312E737265635B
S11300000C943F000C945C000C945C000C945C0019
S11300100C945C000C945C000C945C000C945C00EC
S11300200C945C000C945C000C945C000C945C00DC
S11300300C945C000C945C000C945C000C945C00CC
S11300400C945C000C945C000C945C000C945C00BC
S11300500C945C00F603F803FE030104F603FB03AF
S1130060F603F603F603F803F603F603F603F603C2
S1130070F803FB03F603F603F803F603F80311246D
S11300801FBECFE5D8E0DEBFCDBF11E0A0E6B0E0F3
S1130090ECEBF6E302C005900D92A832B107D9F754
S11300A025E0A8E2B1E001C01D92A73EB207E1F746
S11300B00E9497140C945C1B0C940000FC0147B143
S11300C0908180E4989F90011124942F9F73292B91
S11300D027B996B1906896B996B19F7E96B986B1C4
S11300E09181887F892B86B90895877097B1907E16
S11300F097B997B1892B87B986B1806486B9349B47
S1130100FECF86B1806186B984B195B10895FA01B4
S113011080837183628308953F924F925F926F92BE
S11301207F928F929F92AF92BF92CF92DF92EF9283
S1130130FF920F931F93CF93DF93CDB7DEB727972B
S11301400FB6F894DEBF0FBECDBFDC01ED91FC917C
S113015011979181963019F0903161F005C068943F
S1130160332431F8512C0AC0312C0F2EF2E15F2ECA
S1130170F02D04C06894332432F8512C15811F3FAC
S113018031F40F2EFFEE4F2EF02D10E001C0412E62
S1130190511083C05B017D01828190E0A0E0B0E05A
S11301A0BC01552744279381892F90E0A0E0B0E05B
S11301B0BA2FA92F982F8827842B952BA62BB72BE2
S11301C02481AC01BD01422B4C835D836E837F830C
S11301D0AE014D5F5F4F6C817D818E819F810E9456
S11301E0EC11811156C0D5012D913C91F701A081EC
S11301F0B18111968C91D90111968C93F5014081AE
S113020051814E5F5F4F6C817D818E819F810E9401
S11302108700D501ED91FC918B8185830F2EF6E04B
S11302208F2E912CF02D2FC0F50182819381881996
S1130230990901979A838983E080F1803401FFEF63
S11302406F1A7F0AE60CF71CAE014F5F5F4F6A011D
S1130250012F232D41E06C817D818E819F810E943D
S11302607A1281110FC089819A81892B59F0D501A5
S11302708D919C91FC01E80DF91D108389809A8071
S1130280860C971C1F5F411678F6F50193828282D3
S113029004C00F2EF1E35F2EF02D852D27960FB6A7
S11302A0F894DEBF0FBECDBFDF91CF911F910F91A8
S11302B0FF90EF90DF90CF90BF90AF909F908F9082
S11302C07F906F905F904F903F900895AF92BF9250
S11302D0DF92EF92FF920F931F93CF93DF93CDB7EB
S11302E0DEB727970FB6F894DEBF0FBECDBF7B01F4
S11302F01A8219821B821C821D821E821F82DB01CC
S11303000D911C91CE0101960E94981381110FC08A
S113031089819A81880F991F880F991F0296F70186
S1130320228133812817390720F480E003C080E05C
S113033001C081E0D8018C93CE0101960E949813EC
S11303408823F1F100E010E00F2EF1E3DF2EF02D11
S113035044C0BE01695F7F4FCE0103960E94E8133B
S1130360811126C0D701ED91FC911197C801029625
S1130370E80FF91F8D818083ED91FC911197C801DD
S11303800396E80FF91F8C818083ED91FC911197FE
S1130390C8010496E80FF91F2B812083ED91FC918D
S11303A00B5F1F4FE00FF11F2F8120838C0104C0CE
S11303B00F2EF1E3DF2EF02DBFEFAB1ABB0A05C001
S11303C0A12CB12C00E010E0D12C89819A81A816CF
S11303D0B90618F4DD2009F4BCCFD701ED91FC91E6
S11303E0119789E58083ED91FC91119783E08183D6
S11303F00E5F1F4F13961C930E9312978D2D279605
S11304000FB6F894DEBF0FBECDBFDF91CF911F9121
S11304100F91FF90EF90DF90BF90AF900895AF924F
S1130420BF92CF92DF92EF92FF920F931F93CF93DD
S1130430DF9300D000D000D0CDB7DEB78C017B01B4
S1130440DC01ED91FC918181823019F08A3029F030
S113045008C082810E94CC1105C08FEF0E94CC118C
S113046001C081E0811155C0F701A080B180CE01A7
S113047006960E94C71181111E8289E5D5018C93CD
S1130480D801ED91FC918181F50181838E81828374
S1130490882371F1BE016B5F7F4FCE0101960E94EC
S11304A0101200E010E01EC06801CC0CDD1CCC0C66
S11304B0DD1CA6014D5F5F4F4A0D5B1D69817A818A
S11304C08B819C810E948700F501EC0DFD1D8D81BF
S11304D086830F5F1F4FBE016B5F7F4FCE01019676
S11304E00E941012882301F3813031F480E005C0AA
S11304F000E010E080E001C081E3000F111F000F55
S1130500111F0D5F1F4FD70113961C930E93129763
S113051001C081E326960FB6F894DEBF0FBECDBFAF
S1130520DF91CF911F910F91FF90EF90DF90CF90CB
S1130530BF90AF9008953F924F925F926F927F92D7
S11305408F929F92AF92BF92CF92DF92EF92FF92DF
S11305500F931F93CF93DF9300D000D0CDB7DEB7B6
S11305609C838B835B01DB0112963C9019821A8277
S1130570DC01ED91FC914280512C612C712C3201F3
S113058055244424838190E0A0E0B0E0BA2FA92F41
S1130590982F8827480E591E6A1E7B1E8481480E98
S11305A0511C611C711CD58081E0E12CF12C812C43
S11305B0912CC12C87C01B96ED91FC911C97309710
S11305C061F040815181628173814416550666064B
S11305D0770629F0A0E0B0E002C0A0E0B0E01097F8
S11305E009F46DC017962D913C911897232B09F4AB
S11305F066C0F501208131816C2D70E0CB01069637
S1130600F901E80FF91FD08240E050E018C0818161
S1130610D81213C004C08FEFE81AF80A02C0E12C04
S1130620F12CA381B481C701880F991FA80FB91FAA
S11306308D919C91892B79F710C04F5F5F4F17966E
S1130640ED91FC911897CA01880F991FE80FF91FC3
S11306500190F081E02D3097D1F6D501ED91FC9118
S11306601197CB010796E80FF91FE082832D8C19AF
S1130670875089832D913C91685F7F4F260F371FE8
S11306808E010F5F1F4F4D2DC301B2010E9427132E
S1130690811132C09981C90E992341F02C2D30E08B
S11306A0285F3F4FF5013383228309C02C2D30E0AE
S11306B02A5F3F4FD50113963C932E931297BFEFB9
S11306C08B1A9B0AE0919200F09193004081518132
S11306D09401220F331FD901AA0FBB1FAA0FBB1FFE
S11306E0AA0FBB1FA21BB30BA40FB51F1D969C9191
S11306F01D97913009F05FCF81113EC0AE014E5F6E
S11307005F4FC301B2010E94EC11811137C0D501C2
S1130710ED91FC91119789E58083ED91FC911197FE
S113072084E081832D913C91EB81FC81A081B18196
S113073012968C91D90112968C93F5012081318106
S1130740EB81FC81A081B18113968C91D901139620
S11307508C93F50120813181EB81FC81A081B181F1
S113076014968C91D90114968C93D501ED91FC913A
S11307708A81858380E003C081E301C080E10F901A
S11307800F900F900F90DF91CF911F910F91FF90D9
S1130790EF90DF90CF90BF90AF909F908F907F901D
S11307A06F905F904F903F9008950F931F93DC01DB
S11307B0ED91FC911197E181E63130F512964D915E
S11307C05C911397AE2FB0E0A458BF4F2C9130E04A
S11307D042175307D9F40E2F10E0F8013197E53191
S11307E0F105B0F4E65DFF4F0C94F71A80E011C0F8
S11307F00E940F020EC00E948C000BC00E94660172
S113080008C00E949B0205C081E303C083E101C0CC
S113081081E31F910F910895DC0140E050E020E056
S113082030E008C0FD01E20FF31F9081490F511D14
S11308302F5F3F4F26173707A8F3CA012AEA8227FA
S1130840922708950F931F936F3F2FEF720782072C
S1130850910591F0DA011B96ED91FC911C9730976C
S113086069F0008111812281338160177107820749
S1130870930731F080E005C081E003C080E001C04F
S113088081E01F910F910895DC0120E090E00EC0FB
S11308908BE0989FF0011124EA5AFA4F408151816C
S11308A021E04A175B0709F020E09F5F933010F4C2
S11308B0222371F3222381F0892F90E001974BE0EA
S11308C0489F9001499F300D1124C9018A5A9A4FBB
S11308D0FB01918380830895FB01118210820895A6
S11308E0CF93DF93EC01E0918605F0918705A08119
S11308F0B18140E050E002C04F5F5F4F9A01220F88
S1130900331FF901EE0FFF1FEE0FFF1FEE0FFF1F46
S1130910E21BF30BEA0FFB1F208131812C173D07EB
S113092019F09585992341F38585811104C0DB0174
S1130930ED93FC9303C0FB0111821082DF91CF91F0
S11309400895DC01E0918605F0918705608171814D
S113095040E050E002C04F5F5F4F9A01220F331F07
S1130960F901EE0FFF1FEE0FFF1FEE0FFF1FE21B3B
S1130970F30BE60FF71F208131812A173B0719F08B
S11309809585992341F38585882341F080E0089576
S1130990923009F481E02F5F3F4F03C020E030E044
S11309A080E02115310541F4A381B481A20FB31F66
S11309B011969C91943061F708950895FB01A281EA
S11309C0B38113960D90BC91A02D16960D90BC91F9
S11309D0A02D11960D90BC91A02D813009F444C036
S11309E008F445C0823009F1833009F042C0948193
S11309F09F3709F43EC02C91222321F0992314F44B
S1130A00148237C012964C91242F042E000C330B01
S1130A10290F311D97FD3A952F3731051CF4940F9A
S1130A20948327C09FE7948324C09481903809F16C
S1130A3011962C911197222321F0191614F4148283
S1130A4018C013964C91292F092E000C330B241B2C
S1130A50310947FD339521383F4F1CF0941B948393
S1130A6008C090E8948305C09FE7948302C090E88F
S1130A7094839481903821F09F3719F481E001C068
S1130A8080E0258192170CF4922F95830895DB0161
S1130A901A962C91DC011396ED91FC9114978581A3
S1130AA0281710F081E0089580E00895CF93DF9334
S1130AB09C01EB019A859F3F11F09F5F9A87BE01CD
S1130AC0C9010E944705882319F0888588608887B2
S1130AD0DF91CF910895CF92DF92EF92FF921F930F
S1130AE0CF93DF9300D000D0CDB7DEB76C01BE0149
S1130AF06F5F7F4FFC01808191810E944404BE019D
S1130B006D5F7F4FF601808191810E947004E980BE
S1130B10FA80E114F10409F444C0F601828193815E
S1130B20F70126813781820F931F97838683F6010D
S1130B3084818072F7019085892B8087F6019481E6
S1130B4098239071892BF7018087F60194819C701A
S1130B50892BF7018087F60114811078182BF7018F
S1130B601087F60135818FEF90E0831B9109F7011F
S1130B702285422F50E0841795071CF48FEF82875B
S1130B8003C0230FF70122878B819C81009749F0D2
S1130B90B7010E944705882321F0812F8860F7015F
S1130BA080870F900F900F900F90DF91CF911F913E
S1130BB0FF90EF90DF90CF9008958F929F92AF9225
S1130BC0BF92DA011D921C9220E030E0B0E032C006
S1130BD0ABE0A29FF001A39FF00D1124EA5AFA4F53
S1130BE00190F081E02DEF2B19F1A29FF001A39F5A
S1130BF0F00D1124EA5AFA4F0280F381E02D0384A8
S1130C00F485E02D3097A1F080809180A280B3809C
S1130C1086169706A806B90659F4A29FF001A39F69
S1130C20F00D1124EA5AFA4FDA01ED93FC93B1E086
S1130C302F5F3F4F2330310510F4BB2349F28B2F34
S1130C40BF90AF909F908F900895FC0120918105F3
S1130C502F3F19F09085922331F082819381892B63
S1130C6021F480E0089580E0089581E00895EF92F2
S1130C70FF920F931F93CF93DF937C0100E010E06A
S1130C8080E03CC092E2909FE001919FD00D11243E
S1130C90CE0DDF1D9A81923041F52EC08BE08E9FE0
S1130CA0D0018F9FB00D1124AA5ABA4F8D919C91F7
S1130CB0A881B9818A179B0771F48BE08E9FD001BC
S1130CC08F9FB00D1124AA5ABA4F18968C91842381
S1130CD021F080E003C080E001C081E0813019F49C
S1130CE0D901CD93DC93319602C0E0E0F0E0E3302B
S1130CF0F10510F4882391F20F5F1F4F06171707B1
S1130D0008F4C0CFDF91CF911F910F91FF90EF9026
S1130D100895DC0120E030E024C092E2929FF001CB
S1130D20939FF00D1124E255FD4F608171814D9127
S1130D305C9111976417750791F412968D919C91AB
S1130D40139742E2429FF001439FF00D1124E255B4
S1130D50FD4F43815481840F951F948383832F5FB8
S1130D603F4F24313105C8F20895CF92DF92EF92BC
S1130D70FF92C12CD12C760120E030E021C042E268
S1130D80429FF001439FF00D1124E05DFE4F40812E
S1130D905181452B99F042E2429FF001439FF00DAF
S1130DA01124E05DFE4F4085518562857385C4162C
S1130DB0D506E606F70610F46A017B012F5F3F4F64
S1130DC023303105E0F22FEFC21AD20AE20AF20A06
S1130DD020E030E022C042E2429FF001439FF00D48
S1130DE01124E255FD4F40815181452BA1F042E28F
S1130DF0429FF001439FF00D1124E255FD4F4085C1
S1130E005185628573854C0D5D1D6E1D7F1D408768
S1130E105187628773872F5F3F4F24313105D8F2A2
S1130E20FC014081518162817381C40ED51EE61E8E
S1130E30F71EC082D182E282F382FF90EF90DF90AE
S1130E40CF900895CF93DF93FB0180E090E020E002
S1130E5013C0DC01AA0FBB1FAA0FBB1FAA0FBB1F25
S1130E60A153BA4F6D917C914081518121E0641767
S1130E70750709F020E001968330910510F42223D0
S1130E8041F3222359F1EC01219786819781CC0FFC
S1130E90DD1FCC0FDD1FCC0FDD1FC153DA4F9B8349
S1130EA08A8380858C8382858D8366E070E0CE01A1
S1130EB00E940C049F838E8338C0DC01AA0FBB1FE1
S1130EC0AA0FBB1FAA0FBB1FA153BA4F4D915C9130
S1130ED021E0452B09F020E0019603C080E090E07A
S1130EE020E08330910510F4222339F32223E9F022
S1130EF0EC01219780819181CC0FDD1FCC0FDD1F88
S1130F00CC0FDD1FC153DA4F998388838681978183
S1130F109B838A8380858C8382858D8366E070E0E1
S1130F20CE010E940C049F838E83DF91CF9108959C
S1130F30EF92FF920F931F93CF93DF938C017B016A
S1130F40C0E0D0E007C0823021F4B701C8010E949C
S1130F5022072196209751F4D8011396ED91FC9124
S1130F601497EC0FFD1F8181843069F7DF91CF91D5
S1130F701F910F91FF90EF900895DC0120E030E085
S1130F8090E02BC0A901440F551FFA01EE0FFF1F7B
S1130F90EE0FFF1FEE0FFF1FE41BF50BE757FA4F91
S1130FA00190F081E02D4D915C911197E417F507C4
S1130FB091F4A901440F551FCA01880F991F880F86
S1130FC0991F880F991F841B950B87579A4FFB0114
S1130FD09183808391E02F5F3F4F2530310510F4DA
S1130FE0992381F29923B9F008959C01220F331FAC
S1130FF0F901EE0FFF1FEE0FFF1FEE0FFF1FE21BA5
S1131000F30BE757FA4F4081518121E0452B09F05A
S113101020E0019603C080E090E020E08530910557
S113102010F4222311F3222399F00197880F991FBA
S11310309C01220F331F220F331F220F331FA901DC
S1131040481B590BCA0187579A4FFB019183808330
S11310500895AF92BF92DF92EF92FF920F931F9386
S1131060CF93DF93DB011596ED91FC911697EF2B4F
S113107031F5D12C39C0AD90BC901197E82FF0E038
S1131080AE16BF0641F4FA01B183A083D9010D93D2
S11310901C93DD24D394DB011596ED91FC911697F6
S11310A0EE0DFF1D0190F081E02D9481923029F026
S11310B00280F381E02D0E0F1F1F219605C0C0E0B2
S11310C0D0E000E010E0D12CDB011596ED91FC910D
S11310D016977E01EE0CFF1CEE0DFF1DA081B18161
S11310E0109711F0DD2039F28D2DDF91CF911F91F2
S11310F00F91FF90EF90DF90BF90AF900895DC01C7
S113110020E030E080E017C0A901440F551FFA0128
S1131110EE0FFF1FEE0FFF1FEE0FFF1FE41BF50B7B
S1131120E757FA4F4081518181E04A175B0709F084
S113113080E02F5F3F4F2530310514F4882321F3DD
S11311408823A1F021503109220F331FA901440F34
S1131150551F440F551F440F551FFA01E21BF30B93
S11311609F0127573A4FFB013183208308951F9332
S1131170CF93DF93182FEB018F819885892B59F436
S113118080E01BC09181911304C0EA01F983E883D4
S113119081E0119603C0A0E0B0E080E0EB01EF81B4
S11311A0F8859D01220F331FE20FF31F0190F08198
S11311B0E02D309711F0882329F3DF91CF911F910F
S11311C00895CF92DF92EF92FF920F931F93CF93E4
S11311D0DF9300D0CDB7DEB71A821982DB018D917F
S11311E09C91892B09F580E037C01496ED91FC9110
S11311F01597309731F0CE0101960995882331F087
S11312002AC018968C9190E09A838983F7012081F3
S1131210318189819A81820F931F02969183808301
S11312200F5F1F4F81E005C07A016B0100E010E001
S113123080E0D601ED91FC910380F481E02D9801CA
S1131240220F331FE20FF31FA081B181109721F009
S1131250882359F201C080E00F900F90DF91CF9165
S11312601F910F91FF90EF90DF90CF900895DC01D4
S113127020E030E080E020C082E2829FF001839F82
S1131280F00D1124E05DFE4F808191818A179B0748
S113129069F482E2829FF001839FF00D1124E05DE6
S11312A0FE4F8781861721F090E003C090E001C0D3
S11312B091E0892F2F5F3F4F2330310510F48823AD
S11312C0D9F2882371F02150310992E2929FB00142
S11312D0939F700D11249B01205D3E4FFA013183D1
S11312E0208308950F931F93CF93853008F07FC018
S11312F0613019F06230C1F17CC0E82FF0E0E958A8
S1131300FA4F608320E030E02AC09BE0929FF00116
S1131310939FF00D1124EA5AFA4F40815181452BD5
S1131320E1F0929FF001939FF00D1124EA5AFA4FD5
S11313300280F381E02D0380F481E02D94818913F0
S11313400CC09BE0929FF001939FF00D1124EA5A88
S1131350FA4F90859D7F906490872F5F3F4F233095
S1131360310598F280E046C0C82FE82FF0E0E95834
S1131370FA4F608300E010E035C08BE0809FF001FD
S1131380819FF00D1124EA5AFA4F80819181892BB3
S113139039F18BE0809FF001819FF00D1124EA5A0E
S11313A0FA4F0280F381E02DA381B48114968C91CD
S11313B0C81316C08BE0809FD001819FB00D11240B
S11313C0AA5ABA4F18968C91189781FD09C086FDC8
S11313D007C0BD018B7F18968C93CF010E9498079C
S11313E00F5F1F4F0330110540F280E003C081E01E
S11313F001C081E0CF911F910F9108956F927F9268
S11314008F929F92AF92BF92CF92DF92EF92FF9210
S11314100F931F93CF93DF9300D01F92CDB7DEB706
S11314206B013A011A821982DC018D909C90E12CA7
S1131430F12CA12CB12CACC019968C911997811167
S1131440B2C01496ED91FC911597309759F0CE01E6
S113145001960995882359F0D601ED91FC911182EA
S11314601082A4C018968C9190E09A838983498154
S11314705A81C701840F951F0296459708F093C0BF
S1131480F60120813181F801A081B18113968C91FC
S1131490F901EE0DFF1D8487C7010196D6016D91F8
S11314A07C91F801A081B18112962C91FB01E80F87
S11314B0F91F2487F2E0EF0EF11CD801ED91FC91A5
S11314C00190F081E02D309709F450C0CE010396CD
S11314D00995811139C08B81811136C0D801ED91F4
S11314E0FC910680F781E02D3097E1F0D6012D9133
S11314F03C91C7010C96820F931F0995882369F0CC
S1131500F6012081318149815A8161E070E0C7018F
S11315100C96820F931F0E94151B89819A81E80EF5
S1131520F91E33C0D6012D913C91C7010C96498117
S11315305A8161E070E0820F931F0E94151B89811C
S11315409A81E80EF91E21C0F60120813181C7017C
S11315500C9649815A8161E070E0820F931F0E94CA
S1131560151B89819A81E80EF91E0FC0D6012D91B1
S11315703C91C7010C9661E070E0820F931F0E94BA
S1131580151B89819A81E80EF91EBFEFAB1ABB0ABD
S11315908501000F111F080D191DF801A081B181EB
S11315A0109709F049CFD301ED92FC920F900F9060
S11315B00F90DF91CF911F910F91FF90EF90DF90EB
S11315C0CF90BF90AF909F908F907F906F90089531
S11315D0CF92DF92EF92FF920F931F93CF93DF93FB
S11315E000D000D0CDB7DEB7DC017C836B831A82D8
S11315F0198282E2FB0111928A95E9F7F90180854B
S113160080FD07C0433039F0EB81FC8111821082E8
S11316109AC082E001C081E017966D917C91189781
S113162061157105E9F040912801509129010DC01F
S1131630F8019281891307C04F5F5F4F50932901CE
S1131640409328010FC04F5F5F4FFA01EE0FFF1F59
S1131650E60FF71F008111810115110549F702C03A
S113166000E010E069017D0101151105A9F0D80120
S113167013968D919C911497892B91F08C918130C4
S113168079F4AE014F5F5F4FBE016D5F7F4FC801BC
S113169003960E94FE0904C0EB81FC811182108232
S11316A089819A81892B09F442C0EB81FC81D7019D
S11316B08D919C9191838083EB80FC80F6018681DF
S11316C09781D70114969C938E93139789819A815D
S11316D016969C938E931597F801818117968C9397
S11316E01797808112968C9380912C0190912D01F3
S11316F0A0912E01B0912F01F70180879187A287D5
S1131700B3870196A11DB11D80932C0190932D01E7
S1131710A0932E01B0932F0160E270E0C7010E94F4
S11317200C04D70191969C938E9390970CC0EB81F7
S1131730FC8111821082EB81FC8189819A819683DC
S1131740858311A210A20F900F900F900F90DF913C
S1131750CF911F910F91FF90EF90DF90CF9008955C
S11317606F927F928F929F92AF92BF92CF92DF92AD
S1131770EF92FF920F931F93CF93DF9300D0CDB7D7
S1131780DEB7DC011A82198280E020E030E005C077
S1131790923009F481E02F5F3F4F2115310549F460
S11317A01396ED91FC911497E20FF31F91819430FD
S11317B079F7882309F495C04B016D01BE016F5F71
S11317C07F4FCD010E94BD0789819A81892BF9F44D
S11317D088C0FC01EE0FFF1FEE0FFF1FEE0FFF1F6F
S11317E0E153FA4F40815181D6012D913C9142172A
S11317F0530759F49C01220F331F220F331F220F6A
S1131800331FF901E153FA4F3F01019604C0612CE3
S1131810712C80E090E083309105D8F220E0A12C77
S1131820B12CE12CF12C3BC0D80114968C91149767
S1131830823091F1813089F412964D915C91139725
S1131840C5010296B401680F791F29813A81820F7C
S1131850931F0E940C1B21E01AC0811118C061144F
S1131860710421F0F3018481811111C0D801129611
S11318704D915C911397C5010296B401680F791FCD
S113188029813A81820F931F0E940C1B21E0F801E9
S113189082819381A80EB91EFFEFEF1AFF0AD601C9
S11318A01596ED91FC911697C701880F991FE80FC3
S11318B0F91F008111810115110509F0B5CF2130FF
S11318C081F4E981FA81D4018D919C9111979183DE
S11318D08083E981FA811C968D919C911D9795874F
S11318E084870F900F90DF91CF911F910F91FF90FC
S11318F0EF90DF90CF90BF90AF909F908F907F90AC
S11319006F9008958F929F92AF92BF92CF92DF9281
S1131910EF92FF920F931F93CF93DF93CDB7DEB770
S1131920A2970FB6F894DEBF0FBECDBF6C01E12CB9
S1131930F12C41C08B010150110937C092E29E9DE8
S1131940A0019F9D500D11244C0D5D1DFA01808452
S11319509184A284B384909F9001919F300D1124AF
S11319602C0D3D1DF90180859185A285B3858815CF
S11319709905AA05BB05B8F482E2FA01DE011196C5
S113198001900D928A95E1F782E2F901DA01019062
S11319900D928A95E1F782E2FE013196D901019018
S11319A00D928A95E1F701501109E016F10630F223
S11319B0FFEFEF1AFF0AE616F70608F4BBCFA2966C
S11319C00FB6F894DEBF0FBECDBFDF91CF911F914C
S11319D00F91FF90EF90DF90CF90BF90AF909F90CA
S11319E08F900895CF93DF93EC0163E070E080E380
S11319F091E00E94820C9E0148E063E070E080E385
S1131A0091E00E943706811108C09E0141E063E025
S1131A1070E080E391E00E943706882391F018C0BB
S1131A2092E2929FF001939FF00D1124E05DFE4F2E
S1131A309281923019F0F983E88381E02F5F3F4F60
S1131A4002C020E030E02330310510F4882341F354
S1131A50DF91CF9108950F931F93CF93DF9300D01D
S1131A60CDB7DEB78C0120E030E090E024C092E2F4
S1131A70929FD001939FB00D1124A05DBE4FED91B4
S1131A80FC91D8014D915C91E417F50779F482E259
S1131A90829FF001839FF00D1124E05DFE4F97813A
S1131AA0FB018781981721F090E003C090E001C00A
S1131AB091E02F5F3F4F2330310510F49923B9F2A1
S1131AC0992309F12150310982E2829FD001839F39
S1131AD0B00D1124A05DBE4FFB0101900D928A95BB
S1131AE0E1F73AC082E2829FF001839FF00D112456
S1131AF0E05DFE4F4081518181E0452B09F080E09B
S1131B002F5F3F4F03C020E030E080E023303105F9
S1131B1010F4882339F3882381F02150310982E2BB
S1131B20829FD001839FB00D1124A05DBE4FFB01A5
S1131B3001900D928A95E1F70FC08B01CE010196B9
S1131B400E94F20C882341F0A981BA8182E2F80153
S1131B5001900D928A95E1F70F900F90DF91CF914C
S1131B601F910F910895EF92FF920F931F93CF93BC
S1131B70DF938C017B01C0E0D0E00CC0823049F4DB
S1131B80D70112968C91813021F4B701C8010E94CB
S1131B902B0D2196209751F4D8011396ED91FC91C9
S1131BA01497EC0FFD1F8181843041F7DF91CF91B1
S1131BB01F910F91FF90EF900895BF92CF92DF9203
S1131BC0EF92FF920F931F93CF93DF9300D0CDB783
S1131BD0DEB76C01F62EE42E8901BE016F5F7F4FE4
S1131BE0DC018D919C910E94440489819A81892B06
S1131BF0F1F4EE20E1F0BE016F5F7F4F80E090E0F2
S1131C000E944404E981FA81309789F0D6018D91CC
S1131C109C9191838083E981FA81D382C282148268
S1131C2015821782168280E5808711861286698163
S1131C307A816115710509F480C0FB01E480D60145
S1131C401396ED91FC9114970680F781E02D30975F
S1131C5079F08081882319F0813031F009C08F2D0B
S1131C600E94DD04F82E04C08F2D0E94DE04F82E9D
S1131C70E981FA81B4801186B1E0FB1226C0808527
S1131C8080FD0EC0268137812F5F3F4F3783268327
S1131C9091E0918781FD04C0BF01C6010E945605F1
S1131CA0E981FA81808587628F7A8087D6011B96C5
S1131CB02D913C911C972115310539F0D9011596C8
S1131CC09C91923011F480688087F11019C0E981E9
S1131CD0FA818085982F917411F091E091878E7A22
S1131CE08087D6011B962D913C911C9721153105B7
S1131CF039F0D90115969C91923011F48F77808731
S1131D00B3E0FB1208C01E1434F01B1424F4E98160
S1131D10FA8181E08187F8019581848189170CF427
S1131D20892FD80115968C931597E981FA818BE058
S1131D3001900D928A95E1F70BC0F801118210828F
S1131D40148215821782168280E580871186128696
S1131D500F900F90DF91CF911F910F91FF90EF9013
S1131D60DF90CF90BF900895FF920F931F93CF936E
S1131D70DF93CDB7DEB7E1970FB6F894DEBF0FBEA1
S1131D80CDBFF62EBE016F5F7F4F0E9470040981A4
S1131D901A810115110509F45AC0D8011396ED9161
S1131DA0FC911497E481E53008F053C0F0E0E95861
S1131DB0FA4F8081813009F04EC080917C058823E0
S1131DC069F060917D0570917E0580917F05909109
S1131DD08005A8010E94220481113FC0BE016D5FED
S1131DE07F4FF801808191810E9444049E012B5F02
S1131DF03F4F41E06F2D89819A810E94DD0D8E85D0
S1131E00882369F1BE016B5F7F4F89819A810E94AB
S1131E109807F3E0FF1619F08D8580FF22C09E011C
S1131E202B5F3F4F4F2DBE01605F7F4F89819A81A9
S1131E300E94E80A88899989892BA9F0BE01605F0C
S1131E407F4F89819A810E94B30D80E00DC081E0AB
S1131E500BC081E009C081E007C080E005C080E0DC
S1131E6003C080E001C080E0E1960FB6F894DEBFC5
S1131E700FBECDBFDF91CF911F910F91FF900895B9
S1131E800F931F93CF93DF9300D0CDB7DEB78B01B1
S1131E90BE016F5F7F4F0E944404E981FA8130974D
S1131EA039F08BE0D80101900D928A95E1F703C0D7
S1131EB0F801118210820F900F90DF91CF911F9142
S1131EC00F910895EF92FF921F93CF93DF93CDB7B5
S1131ED0DEB72B970FB6F894DEBF0FBECDBF162F1B
S1131EE07A01BE016F5F7F4FFC01808191810E9466
S1131EF0400F89819A81892B99F0113031F48885BA
S1131F00F70180838F8181830BC0123021F48D818E
S1131F10F701808305C0133019F48E81F7018083A3
S1131F202B960FB6F894DEBF0FBECDBFDF91CF91D5
S1131F301F91FF90EF900895CF92DF92EF92FF925E
S1131F400F931F93CF93DF9300D0CDB7DEB7A0914B
S1131F509200B0919300B0938705A093860580E02A
S1131F6090E006C0FC01E958FA4F22E02083019674
S1131F7085309105B8F380E090E015C02BE0289FF0
S1131F80F001299FF00D1124EA5AFA4F11821082B0
S1131F9013821282148215821782168220E520870A
S1131FA01186128601968330910540F3CD90DC9022
S1131FB0E12CF12C17C0BE016F5F7F4F80E090E0F1
S1131FC00E944404E981FA81309749F0D8018D9147
S1131FD09C9191838083E981FA8113830283BFEF0B
S1131FE0EB1AFB0AC701880F991F8C01000F111F00
S1131FF0000F111F000F111F081B190B0C0D1D1DC5
S1132000F80185858823B9F240E050E024C082E2DB
S1132010849FF001859FF00D1124E255FD4F11A21C
S113202010A211821082148213821682158280E01B
S113203090E00CC022E2249FF001259FF00D1124B2
S1132040E255FD4FE80FF91F14860196843191057E
S113205088F34F5F5F4F44315105C8F240E050E0D0
S11320602CC0CA01880F991FFC01EE0FFF1FEE0F51
S1132070FF1FEE0FFF1FE81BF90BEA56FE4F1586F4
S113208014861182108280E090E012C09A01220F1F
S1132090331FF901EE0FFF1FEE0FFF1FEE0FFF1F9F
S11320A0E21BF30BEA56FE4FE80FF91F128201966A
S11320B08A30910558F34F5F5F4F4431510588F2E0
S11320C010927C0561E080E00E94720981E08093B7
S11320D088050F900F90DF91CF911F910F91FF9082
S11320E0EF90DF90CF900895EF92FF920F931F939C
S11320F0CF93DF9300D0CDB7DEB7809188058130D0
S113210091F161E080E00E94720910C1C801880F5A
S1132110991FFC01EE0FFF1FEE0FFF1FEE0FFF1FB5
S1132120E81BF90BE757FA4FE080F180C7010E94E2
S1132130A104EF2811F0811113C0C801880F991F61
S1132140FC01EE0FFF1FEE0FFF1FEE0FFF1FE81B3A
S1132150F90BE757FA4F8EE0DF011D928A95E9F7F4
S11321600F5F1F4F02C000E010E00530110570F250
S113217000E010E02BC0C801880F991FFC01EE0F8E
S1132180FF1FEE0FFF1FEE0FFF1FE81BF90BEA56B0
S1132190FE4F808191810097B9F0BE016F5F7F4F40
S11321A00E947004C801880F991FBC01660F771F35
S11321B0660F771F660F771F681B790B6A567E4F71
S11321C089819A810E94B00B0F5F1F4F0431110562
S11321D090F200E010E034C0F801EE0FFF1FEE0FA4
S11321E0FF1FEE0FFF1FE153FA4FE080F180C7019C
S11321F00E94A104EF2811F081110FC0F801EE0F25
S1132200FF1FEE0FFF1FEE0FFF1FE153FA4F88E091
S1132210DF011D928A95E9F711C0C801880F991F43
S1132220880F991F880F991F9C0121533A4F7901F8
S1132230C9010E946B05C7010E9489060F5F1F4FE9
S11322400330110548F28CE291E00E94B50600E0EB
S113225010E01FC082E2809FF001819FF00D1124E5
S1132260E05DFE4FE080F180C7010E94A104EF28E9
S113227011F081110CC082E2809FF001819FF00D6A
S11322801124E05DFE4FDF011D928A95E9F70F5F8F
S11322901F4F03301105F0F200E010E01FC08BE087
S11322A0809FF001819FF00D1124EA5AFA4F80813A
S11322B09181009789F0BE016F5F7F4F0E94700487
S11322C08BE0809FB001819F700D11246A5A7A4F70
S11322D089819A810E9498070F5F1F4F033011056F
S11322E0F0F200E010E01FC082E2809FF001819FC5
S11322F0F00D1124E255FD4F80819181009789F002
S1132300BE016F5F7F4F0E94700482E2809FB00124
S1132310819F700D112462557D4F89819A810E949D
S1132320B30D0F5F1F4F04311105F0F2E1E8F5E042
S11323308FEF808381E08183128283E090E0948335
S1132340838310927C0590932B0180932A0182E071
S1132350809388050F900F90DF91CF911F910F917B
S1132360FF90EF9008959C0190918805923021F49C
S1132370C9010E94B40E089581E0089590918805E2
S1132380923019F40E947209089581E008952FE7AC
S1132390FC01208380E008951F93CF93DF931F9265
S11323A0CDB7DEB7182FCE0101960E94C7118091D8
S11323B08805823059F4E1E8F5E089811823108317
S11323C083E090E09483838380E001C081E00F90F8
S11323D0DF91CF911F910895EF92FF92CF93DF93F6
S11323E000D0CDB7DEB720918805223079F47A0188
S11323F0AE014F5F5F4F0E94DD05882349F0E981FC
S1132400FA818085F701808380E003C084E001C005
S113241081E00F900F90DF91CF91FF90EF9008959E
S1132420DF92EF92FF920F931F93CF93DF938C0170
S113243090918805923009F43FC081E053C0219700
S1132440D0938505C09384058BE08C9FF0018D9F0C
S1132450F00D1124EA5AFA4F80819181892B71F190
S1132460CF010E942506882349F18BE08C9FF0015F
S11324708D9FF00D1124EA5AFA4F0280F381E02D6A
S11324800384F485E02D3097C9F080819181A28185
S1132490B381F80180839183A283B3838BE08C9F03
S11324A0F0018D9FF00D1124EA5AFA4F8085F7014F
S11324B08083DD24D39402C07B01D12CD11007C0CA
S11324C0C0918405D0918505209709F0B8CFD1102B
S11324D008C083E090E0909385058093840581E0B3
S11324E001C080E0DF91CF911F910F91FF90EF9099
S11324F0DF900895CF92DF92EF92FF920F931F9394
S1132500CF93DF93CDB7DEB728970FB6F894DEBF2D
S11325100FBECDBF1C821B8218861F823091880596
S1132520323009F07AC0122FAE014F5F5F4F0E9424
S1132530DD05882309F473C0E981FA81628173811E
S11325409E01295F3F4FAE014D5F5F4F802F0E9478
S11325502908882309F465C0F60120813181AB8103
S1132560BC8112968D919C9113972817390708F412
S11325705AC014968C911497823051F1123009F09C
S113258054C0E981FA81BE016B5F7F4F80819181E4
S11325900E947F088823B9F0EB81FC81428153813A
S11325A06D817E818F8198850296680F791FC7019E
S11325B00E940C1BEB81FC8182819381F601918343
S11325C0808380E035C0F6011182108280E030C043
S11325D01596ED91FC911697309759F0C70109951E
S11325E0EB81FC8182819381F6019183808380E079
S11325F01FC017966C916623D1F0E981FA81A70177
S1132600828193810E94620FEB81FC81828193819C
S1132610F6019183808380E00BC081E009C081E0F2
S113262007C084E005C085E003C082E001C081E00A
S113263028960FB6F894DEBF0FBECDBFDF91CF91C1
S11326401F910F91FF90EF90DF90CF9008959F928C
S1132650AF92BF920F931F93CF93DF93CDB7DEB7A3
S113266028970FB6F894DEBF0FBECDBF1C821B8225
S113267018861F8250918805523009F044C05901D0
S1132680942EAE014F5F5F4F0E94DD058823E9F170
S1132690E981FA8162817381AE014D5F5F4F892DBB
S11326A00E94B708882399F1AE01495F5F4FBE01CC
S11326B06D5F7F4F892D0E94E108F801808190E0D1
S11326C02F8138858217930720F1E981FA81AE01C1
S11326D04B5F5F4F692D808191810E943709882368
S11326E071F06D817E81645F7F4F4F815885C50194
S11326F00E940C1B8F81F801808380E00BC0F801DD
S1132700108280E007C087E005C081E003C084E058
S113271001C086E028960FB6F894DEBF0FBECDBF89
S1132720DF91CF911F910F91BF90AF909F9008952B
S1132730CF92DF92EF92FF920F931F93CF93DF9389
S113274000D0CDB7DEB77C01909188059230A1F519
S113275000E010E0C12CD12C23C082E2809FF00164
S1132760819FF00D1124E05DFE4F808191810097DF
S1132770A9F01A821982BE016F5F7F4F0E94440440
S1132780E981FA81309751F00280F381E02D83854D
S11327909485892B19F08FEFC81AD80A0F5F1F4F41
S11327A003301105D0F2F701D182C08210922B01BF
S11327B010922A0180E001C081E00F900F90DF9118
S11327C0CF911F910F91FF90EF90DF90CF900895DC
S11327D0AF92BF92CF92DF92EF92FF920F931F932B
S11327E0CF93DF9300D0CDB7DEB77C011A82198274
S11327F090918805923009F053C06B0100912A0131
S113280010912B01B12CAA24A39443C082E2809F8F
S1132810F001819FF00D1124E05DFE4F80819181D4
S11328200097A9F1BE016F5F7F4F0E944404E981C4
S1132830FA81309761F10280F381E02D83859485DC
S1132840892B29F182E2809FF001819FF00D1124F0
S1132850E05DFE4F8781F6018083E981FA81028081
S1132860F381E02D0384F485E02D80819181A281A0
S1132870B381F70180839183A283B383C801019656
S113288090932B0180932A01BB24B394A12C0F5F56
S11328901F4F0330110530F4BB2009F4B7CF02C039
S11328A0AA24A3948A2D0F900F90DF91CF911F91AA
S11328B00F91FF90EF90DF90CF90BF90AF9008956D
S11328C022E030E0FC013183208380E00895FC01A4
S11328D0108280E00895CF93DF93EC010E942C19BD
S11328E0888380E0DF91CF91089521E4FC01208367
S11328F080E008950F931F93CF93DF931F92CDB77A
S1132900DEB78C01CE0101960E946B148981F80117
S11329108083CE0101960E9475148981F801818318
S113292080E00F90DF91CF911F910F910895CF9385
S1132930DF93CDB7DEB7A1970FB6F894DEBF0FBE15
S1132940CDBF0E949C0F0E94741089E1898382E0AC
S11329508A838FE78B83FE01349684E1DF011D9225
S11329608A95E9F7CE010196998F888F83E090E0EC
S11329709B8F8A8FFD8FEC8F84E190E09F8F8E8FE9
S11329800E94971883E088A389A3CE0180960E94B1
S11329905E000E94461940E064E083E00E9418173C
S11329A06894EE24E1F8F12C0E942C19182F64E0AD
S11329B083E00E94FE17813059F4B1E0EB16F10474
S11329C039F061E00E94BE11EE24E394F12C12C0B0
S11329D064E083E00E94FE1781110CC082E0E816D7
S11329E0F10441F062E081E00E94BE116894EE249B
S11329F0E1F8F12C86EF810F883208F084C060E0A2
S1132A0082E090E00E94B31161E080E00E94F71838
S1132A10EC8DFD8D808190E00E940E1964E080E0D1
S1132A200E94F718EC8DFD8D818190E00E940E19B3
S1132A3066E080E00E94F718EC8DFD8D828190E0C5
S1132A400E940E1969E080E00E94F71880E090E08F
S1132A500E940E196AE080E00E94F718EC8DFD8D4B
S1132A60838190E00E940E196BE080E00E94F718C9
S1132A70EC8DFD8D848190E00E940E196DE080E064
S1132A800E94F718EC8DFD8D858190E00E940E194F
S1132A9062E081E00E94F718EC8DFD8D868190E064
S1132AA00E940E1965E081E00E94F71880E090E032
S1132AB00E940E1966E081E00E94F718EC8DFD8DEE
S1132AC0878190E00E940E1967E081E00E94F71868
S1132AD0EC8DFD8D808590E00E940E1969E081E007
S1132AE00E94F718EC8DFD8D818590E00E940E19EF
S1132AF06CE081E00E94F718EC8DFD8D828590E0FA
S1132B000E940E1983C061E082E090E00E94B3113C
S1132B1061E080E00E94F718EC8DFD8D808190E0EB
S1132B200E940E1964E080E00E94F718EC8DFD8D80
S1132B30818190E00E940E1966E080E00E94F718FF
S1132B40EC8DFD8D828190E00E940E1969E080E099
S1132B500E94F71880E090E00E940E196AE080E07D
S1132B600E94F718EC8DFD8D838190E00E940E1970
S1132B706BE080E00E94F718EC8DFD8D848190E07D
S1132B800E940E196DE080E00E94F718EC8DFD8D17
S1132B90858190E00E940E1962E081E00E94F7189E
S1132BA0EC8DFD8D868190E00E940E1965E081E038
S1132BB00E94F71880E090E00E940E1966E081E020
S1132BC00E94F718EC8DFD8D878190E00E940E190C
S1132BD067E081E00E94F718EC8DFD8D808590E020
S1132BE00E940E1969E081E00E94F718EC8DFD8DBA
S1132BF0818590E00E940E196CE081E00E94F71834
S1132C00EC8DFD8D828590E00E940E191E3108F432
S1132C1084C061E081E090E00E94B31161E080E053
S1132C200E94F718EC8DFD8D808190E00E940E19B2
S1132C3064E080E00E94F718EC8DFD8D818190E0C6
S1132C400E940E1966E080E00E94F718EC8DFD8D5D
S1132C50828190E00E940E1969E080E00E94F718DA
S1132C6080E090E00E940E196AE080E00E94F7186C
S1132C70EC8DFD8D838190E00E940E196BE080E065
S1132C800E94F718EC8DFD8D848190E00E940E194E
S1132C906DE080E00E94F718EC8DFD8D858190E059
S1132CA00E940E1962E081E00E94F718EC8DFD8D00
S1132CB0868190E00E940E1965E081E00E94F71879
S1132CC080E090E00E940E1966E081E00E94F7180F
S1132CD0EC8DFD8D878190E00E940E1967E081E004
S1132CE00E94F718EC8DFD8D808590E00E940E19EE
S1132CF069E081E00E94F718EC8DFD8D818590E0FC
S1132D000E940E196CE081E00E94F718EC8DFD8D95
S1132D10828590E00E940E1983C060E081E090E01B
S1132D200E94B31161E080E00E94F718EC8DFD8DE4
S1132D30808190E00E940E1964E080E00E94F71800
S1132D40EC8DFD8D818190E00E940E1966E080E09B
S1132D500E94F718EC8DFD8D828190E00E940E197F
S1132D6069E080E00E94F71880E090E00E940E196C
S1132D706AE080E00E94F718EC8DFD8D838190E07D
S1132D800E940E196BE080E00E94F718EC8DFD8D17
S1132D90848190E00E940E196DE080E00E94F71893
S1132DA0EC8DFD8D858190E00E940E1962E081E03A
S1132DB00E94F718EC8DFD8D868190E00E940E191B
S1132DC065E081E00E94F71880E090E00E940E190F
S1132DD066E081E00E94F718EC8DFD8D878190E01C
S1132DE00E940E1967E081E00E94F718EC8DFD8DBA
S1132DF0808590E00E940E1969E081E00E94F71836
S1132E00EC8DFD8D818590E00E940E196CE081E0CF
S1132E100E94F718EC8DFD8D828590E00E940E19BA
S1132E20BE01645E7F4FCE0148960E94D503BCCD9F
S1132E30683008F06FC0843008F06CC0813001F154
S1132E4030F08230B1F1833009F44CC00895413040
S1132E5059F42AB381E090E002C0880F991F6A9563
S1132E60E2F7822B8ABB08952AB381E090E002C086
S1132E70880F991F6A95E2F7809582238ABB08958B
S1132E80413059F427B381E090E002C0880F991FC4
S1132E906A95E2F7822B87BB089527B381E090E01F
S1132EA002C0880F991F6A95E2F78095822387BB39
S1132EB00895413059F424B381E090E002C0880FB2
S1132EC0991F6A95E2F7822B84BB089524B381E0AD
S1132ED090E002C0880F991F6A95E2F780958223DB
S1132EE084BB0895413059F421B381E090E002C0DD
S1132EF0880F991F6A95E2F7822B81BB089521B34D
S1132F0081E090E002C0880F991F6A95E2F78095EE
S1132F10822381BB0895683008F06FC0843008F0C4
S1132F206CC0813001F130F08230B1F1833009F4AA
S1132F304CC00895413059F42BB381E090E002C0B5
S1132F40880F991F6A95E2F7822B8BBB08952BB3E8
S1132F5081E090E002C0880F991F6A95E2F780959E
S1132F6082238BBB0895413059F428B381E090E06B
S1132F7002C0880F991F6A95E2F7822B88BB0895D7
S1132F8028B381E090E002C0880F991F6A95E2F7A8
S1132F908095822388BB0895413059F425B381E09C
S1132FA090E002C0880F991F6A95E2F7822B85BBD7
S1132FB0089525B381E090E002C0880F991F6A95B7
S1132FC0E2F78095822385BB0895413059F422B3FA
S1132FD081E090E002C0880F991F6A95E2F7822B86
S1132FE082BB089522B381E090E002C0880F991F4C
S1132FF06A95E2F78095822382BB08956830B0F524
S11330008430B0F5813089F028F08230C9F0833003
S113301011F130C089B390E002C0959587956A9507
S1133020E2F780FF29C081E0089586B390E002C0F2
S1133030959587956A95E2F780FF20C081E0089511
S113304083B390E002C0959587956A95E2F780FF77
S113305017C081E0089580B390E002C095958795EC
S11330606A95E2F780FF0EC081E0089580E008953C
S113307080E0089580E0089580E0089580E0089558
S113308080E0089580E00895843078F4813041F040
S113309028F0823039F0833039F008956ABB0895FE
S11330A067BB089564BB089561BB0895843078F4C8
S11330B0813041F028F0823039F0833039F00895BE
S11330C06BBB089568BB089565BB089562BB089502
S11330D0CF93C82F40E060E083E00E948B1789EF14
S11330E090E00197F1F700C0000041E062E083E066
S11330F00E948B1789EF90E00197F1F700C0000060
S11331006C2F82E00E94561889EF90E00197F1F746
S113311000C0000040E062E083E00E948B1789EF6A
S113312090E00197F1F700C00000CF91089541E0CD
S113313060E083E00E94181741E062E083E00E94AF
S1133140181787E893E10197F1F700C000006FEFCB
S113315082E00E94441888E30E9468188CE00E9470
S1133160681881E00E9468180895CF93C82F41E041
S113317060E083E00E948B1789EF90E00197F1F7FC
S113318000C0000041E062E083E00E948B1789EFF9
S113319090E00197F1F700C000006C2F82E00E94DC
S11331A0561889EF90E00197F1F700C0000040E065
S11331B062E083E00E948B1789EF90E00197F1F7BA
S11331C000C00000CF9108950F931F93CF938C01FB
S11331D0C0E003C00E94B518CF5FF801EC0FF11DE9
S11331E080818111F7CFCF911F910F910895813084
S11331F031F070F0823031F0833039F00AC090E45D
S1133200960F07C090E1960F04C090E5960F01C099
S1133210962F892F80680E9468180895CF93DF93B2
S1133220CDB7DEB760970FB6F894DEBF0FBECDBF43
S113323040E150E0BE016F5F7F4F0E941C1BCE0136
S113324001960E94E41860960FB6F894DEBF0FBE94
S1133250CDBFDF91CF91089582E00E9475009C015B
S1133260A6E9B0E00E94FD1A0E94FC192AE037ED9D
S113327043E250E40E948A1A20E030ED4FEB54E41C
S11332800E945B190E94CD19862F089541E060E0E9
S113329081E00E94181741E061E081E00E94181764
S11332A040E060E081E00E948B1740E061E081E053
S11332B00E948B1708950E946F190C94501A0E9453
S11332C0491A58F00E94421A40F029F45F3F29F04D
S11332D00C94391A51110C94841A0C943F1A0E94BC
S11332E0611A68F39923B1F3552391F3951B550B98
S11332F0BB27AA2762177307840738F09F5F5F4FC5
S1133300220F331F441FAA1FA9F335D00E2E3AF003
S1133310E0E832D091505040E695001CCAF72BD01B
S1133320FE2F29D0660F771F881FBB1F261737076C
S11333304807AB07B0E809F0BB0B802DBF01FF279E
S113334093585F4F3AF09E3F510578F00C94391A28
S11333500C94841A5F3FE4F3983ED4F386957795F2
S11333606795B795F7959F5FC9F7880F911D969557
S1133370879597F90895E1E0660F771F881FBB1FB3
S1133380621773078407BA0720F0621B730B840B60
S1133390BA0BEE1F88F7E09508950E94691A88F029
S11333A09F5798F0B92F9927B751B0F0E1F0660F05
S11333B0771F881F991F1AF0BA95C9F714C0B13046
S11333C091F00E94831AB1E008950C94831A672F38
S11333D0782F8827B85F39F0B93FCCF38695779575
S11333E06795B395D9F73EF490958095709561955E
S11333F07F4F8F4F9F4F0895E89409C097FB3EF489
S113340090958095709561957F4F8F4F9F4F99232D
S1133410A9F0F92F96E9BB279395F69587957795AB
S11334206795B795F111F8CFFAF4BB0F11F460FF6B
S11334301BC06F5F7F4F8F4F9F4F16C0882311F0C3
S113344096E911C0772321F09EE8872F762F05C0D7
S1133450662371F096E8862F70E060E02AF09A9572
S1133460660F771F881FDAF7880F9695879597F967
S1133470089597F99F6780E870E060E008959FEFF2
S113348080EC089500240A941616170618060906F7
S1133490089500240A9412161306140605060895C6
S11334A0092E0394000C11F4882352F0BB0F40F44E
S11334B0BF2B11F460FF04C06F5F7F4F8F4F9F4F8E
S11334C0089557FD9058440F551F59F05F3F71F010
S11334D04795880F97FB991F61F09F3F79F0879577
S11334E00895121613061406551FF2CF4695F1DF00
S11334F008C0161617061806991FF1CF8695710590
S1133500610508940895E894BB2766277727CB01C3
S113351097F908950E949D1A0C94501A0E94421A19
S113352038F00E94491A20F0952311F00C94391AAE
S11335300C943F1A11240C94841A0E94611A70F39B
S1133540959FC1F3950F50E0551F629FF001729F44
S1133550BB27F00DB11D639FAA27F00DB11DAA1F53
S1133560649F6627B00DA11D661F829F2227B00DA0
S1133570A11D621F739FB00DA11D621F839FA00D2B
S1133580611D221F749F3327A00D611D231F849F7B
S1133590600D211D822F762F6A2F11249F575040D2
S11335A09AF0F1F088234AF0EE0FFF1FBB1F661F4D
S11335B0771F881F91505040A9F79E3F510580F016
S11335C00C94391A0C94841A5F3FE4F3983ED4F3B4
S11335D0869577956795B795F795E7959F5FC1F7BA
S11335E0FE2B880F911D9695879597F90895EE0FF8
S11335F0FF1F0590F491E02D0994A29FB001B39FA1
S1133600C001A39F700D811D1124911DB29F700DE7
S1133610811D1124911D0895FB01DC0102C001905C
S11336200D9241505040D8F70895DC0101C06D93CC
S113363041505040E0F708954532510520F442309E
S113364010F00C94271BFB011082CB010895BB27BB
S11336504A3031F4992322F4BDE2909581959F4F2D
S11336600C94331BBB27FB015527AA27880F991FEE
S1133670AA1FA41710F0A41B83955051B9F7A05D9D
S1133680AA3308F0A95DA193009779F7B111B1931A
S11336901192CB010C944C1BDC01FC01672F71913E
S11336A07723E1F7329704C07C916D937083629124
S10F36B0AE17BF07C8F30895F894FFCFCD
S11336BCBE00C300C800BE00C300C800E100000087
S11336CCD7000000CD000000F300EB000003030260
S11336DC06030604040502020202020306030303A2
S11336EC02029400960001000103017A00660000B6
S11336FC00B200000200010D01780060000000B867
S113370C0000106E01000101116F010001010101A3
S113371C02740001020270000103026C006714348D
S113372C1260147A1402006714785660147A140226
S113373C006714532660147A14020001000400017B
S113374C0000010200040001000001030004000158
S113375C000001000201000103210100000002012C
S113376C00010321010000000201000103210100FA
S10B377C0001240101010A0A05
S9030000FC
